:020000040800F2
:10000000D88C002039030008B5860008F365000885
:1000100069860008FD0D0008F1E8000800000000F6
:10002000000000000000000000000000790200084D
:100030003315000800000000D50200082DBB0008A1
:100040005303000853030008530300085303000838
:100050005303000853030008351500085303000834
:1000600053030008530300083F150008530300081A
:1000700059130008530300085303000853030008F2
:1000800053030008530300085303000853030008F8
:10009000010E000853030008530300084915000827
:1000A00053030008530300085303000853030008D8
:1000B00021BC000831BC00085303000853030008AA
:1000C00053030008530300085303000853030008B8
:1000D0005303000895C5000853030008A5C5000890
:1000E0005303000853030008530300085303000898
:1000F0005303000853030008530300085303000888
:100100005303000853030008530300085303000877
:100110005303000853030008530300085303000867
:100120005303000869130008791300088D130008B1
:100130005303000853030008530300085303000847
:10014000110E00085303000853030008B986000885
:100150009D130008AD130008BD130008B9C50008C1
:100160005303000853030008530300085303000817
:100170005303000853030008530300080000000065
:10018000530300085303000800F002F800F064F87D
:100190000AA090E8000C82448344AAF10107DA45E2
:1001A00001D100F059F8AFF2090EBAE80F0013F0D0
:1001B000010F18BFFB1A43F0010318471025010077
:1001C000302501000A444FF0000C10F8013B13F0F9
:1001D000070408BF10F8014B1D1108BF10F8015BA0
:1001E000641E05D010F8016B641E01F8016BF9D193
:1001F00013F0080F1EBF10F8014BAD1C0C1B09D1EA
:100200006D1E58BF01F801CBFAD505E014F8016B5B
:1002100001F8016B6D1EF9D59142D6D370470000ED
:100220000023002400250026103A28BF78C1FBD8FF
:10023000520728BF30C148BF0B607047642900F0E7
:100240008581732900F03B83002070471FB512F0B1
:100250001CF81FBD10B510BD00F03EFB1146FFF7A6
:10026000F5FF0FF0B3FD00F05CFB03B4FFF7F2FF06
:1002700003BC00F05FFB00002C4B19680868B0E875
:10028000F04F80F30988BFF36F8F4FF0000080F3C9
:10029000118870470000000008480068006880F37B
:1002A00008884FF0000080F3148862B661B6BFF38F
:1002B0004F8FBFF36F8F00DF00BF00BF08ED00E07E
:1002C000DFF80C00016841F470010160704700BF65
:1002D00088ED00E0EFF30980BFF36F8F134B1A68CE
:1002E0001EF0100F08BF20ED108A20E9F04F1060BB
:1002F00009B44FF0500080F31188BFF34F8FBFF364
:100300006F8F10F08BFF4FF0000080F3118809BC55
:1003100019680868B0E8F04F1EF0100F08BFB0EC85
:10032000108A80F30988BFF36F8F70478400002024
:10033000EFF30580704700000948804709480047EF
:10034000FEE7FEE7FEE7FEE7FEE7FEE7FEE7FEE785
:10035000FEE7FEE704480549054A064B70470000E2
:100360000DBC000889010008D8860020D88C002028
:10037000D8880020D888002053EA020C00F0698059
:100380002DE9F04B4FF00006002B1FBFB3FA83F5A9
:1003900003FA05F424FA05F65E4012BF1643B2FADA
:1003A00082F502FA05F4C5F120051EBF22FA05FC0C
:1003B00044EA0C04203556EA044C4FEA144418BFB2
:1003C000641C4FF000084FF00009904271EB030CE1
:1003D00039D3002919BFB1FA81F701FA07F6B0FA4B
:1003E00080F700FA07F6C7F120071EBF20FA07FCC6
:1003F00046EA0C062037B6FBF4FCA7EB0507103FD6
:1004000007F01F0BCBF120060CFA0BFB2CFA06F6BB
:1004100044BFB3460026202FA4BF5E464FF0000B1A
:100420005BEA060C08BF4FF0010B19EB0B09ABFBA5
:10043000027C48EB0608C01B06FB02CC0BFB03CC7E
:1004400071EB0C01C1E70B46024641464846BDE848
:10045000F08B13B54FF000004FF00001AFF30080B8
:10046000BDE81C40704700000FB41CB5074B06AA3E
:100470007B4469460090059800F0F7F90020694632
:1004800000F006FA1CBC5DF814FB00001D0400001F
:100490002DE9F0410E460446002020622046E16826
:1004A000884730B3252805D0D4E901219047206A38
:1004B000401CF2E7E168204600278847050018D075
:1004C000A5F14100192802D820354FF400673246C3
:1004D000294620462760FFF7B1FE40B1012804D02D
:1004E000F61D26F007060836D8E7361DD6E728465B
:1004F000DAE7206ABDE8F08170B50C460546012AAE
:1005000005D02878800600D5EA69002302E001239F
:1005100005E05B1C934202D2E05C0028F9D1A86997
:10052000E618C01AA861286A184428622846AFF362
:10053000008004E0D5E9012114F8010B9047B44292
:10054000F8D32846AFF3008070BD00002DE9F041DC
:100550000646002410687529314616A510D0AFF361
:100560000080002802DA404213A507E031688A07BC
:1005700001D512A502E0490704D511A5012401E027
:10058000AFF3008000210A2206F1240709E0B0FB46
:10059000F2FCB0FBF2F302FB1C003030785418463A
:1005A000491C0028F3D123462A463046BDE8F041D5
:1005B00000F0FDB8000000002D0000002B0000003E
:1005C0002000000010B5431C02E010F8011B71B1BF
:1005D0008107FAD14FF0013202C88C1A8C4314EA19
:1005E000C211F9D0C01A0A0603D0C01E10BDC01A2D
:1005F00010BD0A0401D0801E10BD0902FCD0401EAF
:1006000010BD032A40F2308010F0030C00F015807A
:1006100011F8013BBCF1020F624498BF11F801CB05
:1006200000F8013B38BF11F8013BA2F1040298BF6A
:1006300000F801CB38BF00F8013B11F0030300F0D4
:100640002580083AC0F0088051F8043B083A51F878
:1006500004CBA0E80810F5E7121D5CBF51F8043B7D
:1006600040F8043BAFF30080D20724BF11F8013BF0
:1006700011F801CB48BF11F8012B24BF00F8013B52
:1006800000F801CB48BF00F8012B704710B5203AA5
:10069000C0F00B80B1E81850203AA0E81850B1E83B
:1006A0001850A0E81850BFF4F5AF5FEA027C24BFF1
:1006B000B1E81850A0E8185044BF18C918C0BDE8E8
:1006C00010405FEA827C24BF51F8043B40F8043BB1
:1006D00008BF7047D20728BF31F8023B48BF11F866
:1006E000012B28BF20F8023B48BF00F8012B7047C0
:1006F00002F0FF0343EA032242EA024200F002B89A
:100700004FF000020429C0F0128010F0030C00F03A
:100710001B80CCF1040CBCF1020F18BF00F8012BB8
:10072000A8BF20F8022BA1EB0C0100F00DB85FEA86
:10073000C17C24BF00F8012B00F8012B48BF00F852
:10074000012B70474FF0000200B5134694469646C1
:10075000203922BFA0E80C50A0E80C50B1F12001D4
:10076000BFF4F7AF090728BFA0E80C5048BF0CC082
:100770005DF804EB890028BF40F8042B08BF7047E0
:1007800048BF20F8022B11F0804F18BF00F8012B52
:10079000704770477047704710B500F095F80068D3
:1007A00010BD10B5044600F08FF8046010BD2DE9AF
:1007B000F0470D4699469246044600F12408016828
:1007C000880604D5E06921F01001216000E00120D5
:1007D000A84201DD471B00E00027A1697A1902EB5E
:1007E0000900081AA0612078C00602D42046AFF3A1
:1007F0000080002608E0D4E901211AF8060090479D
:10080000206A401C761C20624E45F4DB2078C0062E
:100810000AD52046AFF3008006E0D4E9012130205C
:100820009047206A401C2062381EA7F10107F4DCC3
:1008300007E0D4E9012118F805009047206A401C20
:100840002062281EA5F10105F3DC2046AFF30080ED
:100850002078000602D50220BDE8F0870120FBE7E2
:1008600001694A1C02610878704700B58FB0CDE974
:1008700001310021059105497944CDE90310114664
:100880006846FFF705FE0FB000BD0000E5FFFFFF63
:100890000A6802F8010B0A60704710B5436913B18A
:1008A000AFF3008001E0FFF727FE012010BD1278B2
:1008B00000F124010A7000224A700122EDE711685C
:1008C0004FF0FF32E9E700000048704774860020CF
:1008D00000487047748600207546FFF7F9FFAE4662
:1008E00005006946534620F00700854618B020B53C
:1008F000FFF730FDBDE820404FF000064FF0000745
:100900004FF000084FF0000B21F00701AC46ACE8B7
:10091000C009ACE8C009ACE8C009ACE8C0098D4624
:10092000704710B50446AFF300802046BDE8104084
:10093000FFF79BBC01491820ABBEFEE72600020072
:1009400070470000B7EE000A80ED000A9FED060A2E
:1009500080ED010A9FED040A80ED020A9FED020A74
:1009600080ED030A70470000000000002DE9F0410F
:100970002DED028B0646B0EE408A0C4615461F460A
:1009800095ED023AF0EE432A95ED013AB0EE432A96
:1009900095ED003AF0EE431A94ED023AB0EE431AA8
:1009A00094ED013AF0EE430A94ED003AB0EE430ABA
:1009B000304607F0DBFCBDEC028BBDE8F08124E0A3
:1009C000F0EE000A80EE201AF1EE410A90ED001AD6
:1009D000F4EEC10AF1EE10FA06DDD0ED000A70EE79
:1009E000800AC0ED000A10E0F0EE000A80EE201A46
:1009F000D0ED000AB4EEE01AF1EE10FA05D2D0ED17
:100A0000000A70EEC00AC0ED000AF0EE000A80EEA7
:100A1000201AF1EE410A90ED001AF4EEC10AF1EE4F
:100A200010FACDDCF0EE000A80EE201AD0ED000ABC
:100A3000B4EEE01AF1EE10FAC2D3704710B50122FD
:100A40001021024802F09CFD10BD00000000024091
:100A500010B500221021024802F092FD10BD0000E6
:100A6000000002407047000010B501221146024804
:100A700002F086FD10BD00000004024010B5002207
:100A80000121024802F07CFD10BD0000000402407C
:100A900010B543781B021BB20478234300EE103AD2
:100AA000B8EEC01A1C4BD3ED001A21EE211A81EDCD
:100AB000001AC3781B021BB28478234300EE103A5D
:100AC000B8EEC01A144BD3ED001A21EE211A81EDB5
:100AD000011A43791B021BB20479234300EE103A3A
:100AE000B8EEC01A0C4BD3ED001A21EE211A81ED9D
:100AF000021A037A1B04C47943EA0423847923434A
:100B000000EE903AB8EE601ADFED041A21EE211AD9
:100B100082ED001A10BD0000C002002000401C42FF
:100B2000704710B5044620460FF0D9F910BD10B536
:100B3000044601200FF0D3F910BD000042781202E4
:100B400012B203781A4300EE102AF8EEC00A144AD3
:100B500092ED001A60EE810AC1ED000AC27812021D
:100B600012B283781A4300EE102AF8EEC00A0C4A3B
:100B700092ED001A60EE810AC1ED010A427912027B
:100B800012B203791A4300EE102AF8EEC00A044AA2
:100B900092ED001A60EE810AC1ED020A7047000072
:100BA000C402002010B50024FFF75CFFFFF7B8FF78
:100BB0000EF0DCFA10B144F0800402E00EF038FAD6
:100BC00004430EF0D7FC10B144F0400402E00EF0F4
:100BD00053FC0443204610BD2DE9FC4105460E465A
:100BE0001746002000900190FFF732FF922000F09E
:100BF000D1F806226946122000F0ACF8FFF71EFF7C
:100C00009DF80100000200B29DF8001040EA0104C6
:100C100000EE104AB8EEC00A4C48D0ED000A20EEB3
:100C2000200A86ED000A9DF80300000200B29DF83C
:100C3000021040EA010400EE104AB8EEC00A434830
:100C4000D0ED000A20EE200A86ED010A9DF805008D
:100C5000000200B29DF8041040EA010400EE104AC0
:100C6000B8EEC00A3948D0ED000A20EE200A86ED21
:100C7000020AFFF703FF08226946002000F06AF825
:100C8000FFF7F2FE9DF800000F2838D19DF8030011
:100C9000000200B29DF8021040EA010400EE104A82
:100CA000B8EEC00A2A48D0ED000A20EE200A85EDF1
:100CB000000A9DF80500000200B29DF8041040EA09
:100CC000010400EE104AB8EEC00A2148D0ED000A37
:100CD00020EE200A85ED010A9DF80700000200B20F
:100CE0009DF8061040EA010400EE104AB8EEC00A72
:100CF0001748D0ED000A20EE200A85ED020AFFF722
:100D0000A7FEA22000F046F802226946222000F049
:100D100021F8FFF793FE9DF80000C0009DF8011038
:100D200040EA6114B4F5806F02DBA4F5006004B200
:100D300000EE104AF8EEC00AB4EE001AB3EE070A4D
:100D400000EE810A87ED000ABDE8FC81C0020020A8
:100D5000C402002070B506460C46154646F08000D9
:100D600000F018F806E0552000F014F82070641C1C
:100D7000681EC5B2002DF6D170BD70B504460D4693
:100D800044F0800000F006F8552000F003F82870C9
:100D900070BD000001B582B04FF47A70012301AA42
:100DA00002A90090024804F0F9FB9DF804000EBD72
:100DB000EC06002010B502461378DB00547843EAB5
:100DC0006410B0F5806F02DBA0F5006318B200EE8E
:100DD000100AF8EEC00AB4EE001AB3EE070A00EEED
:100DE000810A81ED000A10BD70B505460C46284603
:100DF000FFF7D0FF2046FFF7CDFF70BD00BFFEE735
:100E000010B5024801F06EFC10BD0000480600203D
:100E100010B5024801F066FC10BD0000700600200D
:100E20002DE9F04106460C4617461D460F48046062
:100E300000200E4948608860C860084605610123AB
:100E40003A46304601F030FA60B102233A4607498B
:100E5000304601F029FA28B104233A4603493046C6
:100E600001F022FA0020BDE8F08100008812002085
:100E700004284FF0000070470020704710B5002292
:100E8000044905480BF0B2FD044903480BF0A0FDEE
:100E9000002010BD70770020946A0020706F002041
:100EA00010B504460968204610F0F0F921460448C0
:100EB0000BF08EFD02480BF05BFD002010BD000022
:100EC000946A00200020704710B50A460849D1F8FE
:100ED000BC12D1F81412002901D0012010BD014626
:100EE00003480BF083FDBDE8104001480BF016BE2F
:100EF000946A002038B5002003469FED292ADFEDD3
:100F0000291AB6EE001ADFED280A9FED280A284AB2
:100F10000146009027480FF02BFA9FED240A254840
:100F200080ED130A9FED240A80ED140A002433E0BB
:100F3000601C04EB041101EB4101204A42F821003E
:100F400004EB84001E4901EB001004EB041101EBDB
:100F5000410102EB81014860002004EB4401194B80
:100F600003EB810204EB041101EB4101134B03EB92
:100F70008101009001F1680000239FED132ADFED4D
:100F8000081A9FED121ADFED120A9FED110A194699
:100F90000FF0EEF9601CC4B2042CC9DB38BD0000B0
:100FA00000000000BC74133CEB564940DC0F494084
:100FB00018020020F4630020DC0F49C0C460002048
:100FC000940B0020E8010020CDCCCC3D0000C843AC
:100FD0000000804610B52DED028B5D48007830B1E1
:100FE000012872D002283FD005286DD19CE05948D5
:100FF000807CC0F340005749897C01F00101401A10
:1010000000EE100AB8EEC00A5348D0ED000A20EEF8
:10101000200A524880ED000A4E48807CC0F3C00090
:101020004C49897CC1F38001401A00EE100AB8EEE9
:10103000C00A4948D0ED000A20EE200A474880ED5A
:10104000010A00F089FAB0EE408A4548406890ED08
:10105000100AF0EE400AB0EE480A42480EF08CFF4B
:101060003E4880ED020A6EE03A48807CC0F34000C2
:101070003849897C01F00101401A00EE100AB8EEEF
:10108000C00A3548D0ED000A20EE200A334880ED32
:10109000000A3048807CC0F3C0002E49897CC1F32F
:1010A0008001401A00EE100AB8EEC00A2A48D0EDBE
:1010B000000A20EE200A294880ED010A9FED2A0A45
:1010C00080ED020A3FE000E03CE02248807CC0F373
:1010D00040002049897C01F00101401A00EE100A0D
:1010E000B8EEC00A1C48D0ED000A20EE200A1B48CA
:1010F00080ED000A1748807CC0F3C0001549897C48
:10110000C1F38001401A00EE100AB8EEC00A12487E
:10111000D0ED000A20EE200A104880ED010A9FED74
:10112000130A80ED020A0EE09FED0F0A0B4880EDD6
:10113000000A9FED0D0A80ED010A9FED0B0A80ED7C
:10114000020A00E000BF00BFBDEC028B10BD000032
:10115000C0010020CA120020300200205464002088
:1011600078640020F463002000000000DC0F494197
:1011700008B5FFF7BFFE90E010F072FA0090474804
:10118000007A012812D14548407A02280ED14448FD
:10119000007838B1022043490870002042490870A5
:1011A0004249087000203E49087002E001203C4995
:1011B00008703B48007820B1012814D0022866D17D
:1011C00064E000F07BF8FFF705FF39480068394913
:1011D000886037484068C86035488068086136488C
:1011E0000FF087FC54E02D48007A022807D12B48E5
:1011F000407A032803D100202A49087036E02748A6
:10120000007A022803D12548407A022807D02348D3
:10121000007A022807D12148407A012803D1022010
:101220002049087022E01D48007A032807D11B4896
:10123000407A022803D105201A49087016E01748A1
:10124000007A032803D11548407A032807D01348B1
:10125000007A032807D11148407A012803D10120E0
:101260001049087002E005200E49087007F084FC60
:101270000F4800680F4988600D484068C8600C48F6
:10128000806808610C480FF034FC01E000E000BF0A
:1012900000BF022168460FF0C9FE6DE7CA120020A8
:1012A000C2010020C0010020580200209C02002042
:1012B0005464002074120020700600202148408AE7
:1012C00000F40070E0B120480078E0B91F480078D1
:1012D000022803D100201E4908700DE01B48007849
:1012E00018B902201A49087006E018480078012849
:1012F00002D100201649087001201349087002E04D
:101300000020114908700F48807C00F0100088B15F
:101310001048007888B90D480078012803D00120D2
:101320000B49087002E000200949087001200949B2
:10133000087002E00020074908700548007803495A
:1013400008707047CA1200202C02002024020020DE
:10135000C00100202D02002010B5024801F06CFDF4
:1013600010BD00002C0A002010B5024801F064FDF9
:1013700010BD00008C0A002010B505F091FE024857
:1013800001F05AFD10BD00004407002010B50248CE
:1013900001F052FD10BD0000A407002010B5024866
:1013A00001F04AFD10BD0000CC09002010B5024834
:1013B00001F042FD10BD0000EC0A002038B51648CF
:1013C00000680068C0F3001010B300BF0020009058
:1013D00011480068006800900F480068406800905D
:1013E00000BF00BF0C4804F04AFD0C480068446888
:1013F000C4F5FA640A4806F0B3FA4FF4FA610848F3
:10140000FFF77EF94FF4FA620549034805F0D8F872
:10141000044801F011FD38BD24090020CC0900204A
:10142000451700206C090020014608781038182361
:10143000B0FBF3F20848805CC865032A05D9086848
:101440006FF30900001D886503E008686FF3090069
:101450008865886D704700002C2301080146002034
:101460008A6A8B69CBB932B1012A0DD0022A03D026
:10147000032A10D10EE000BFCB6A03F08073B3F1F2
:10148000807F00D1012007E0CB6AB3F1C07F00D19B
:10149000012001E000E000BF34E08B69B3F5005F9C
:1014A0001AD132B1012A07D0022A03D0032A11D15E
:1014B0000AE000BF01200EE0CB6A03F08073B3F1B5
:1014C000807F00D1012006E0CB6AB3F1C07F00D15C
:1014D000012000E000BF15E032B1012A05D0022A48
:1014E00004D0032A0CD103E000BF00BF012008E0B4
:1014F000CB6A03F08073B3F1807F00D1012000E05C
:1015000000BF00BF704730B50468246824F480240D
:1015100005682C60046863608468402C04D104680A
:10152000A2600468E16003E00468A1600468E2600E
:1015300030BD704710B5012001F010FF10BD10B58F
:10154000102001F00BFF10BD10B5202001F006FFA8
:1015500010BD72B600BFFEE710B52DED048B2D480F
:10156000406890ED100ADFED2C0A30EEC00A10EE54
:10157000101A084610F018FE41EC190BB0EE490A9B
:10158000F0EE690A0DF08AFCB0EE408AF0EE608A57
:101590009FED220B53EC102B51EC180B10F0AAFB13
:1015A00005D29FED1D0A1F4880ED000A2CE0194866
:1015B000406890ED100ADFED180A30EEC00A10EE18
:1015C000101A084610F0F0FD41EC190BB0EE490A74
:1015D000F0EE690A0DF062FCB0EE408AF0EE608A2F
:1015E0009FED110B53EC102B51EC180B10F0BCFCC1
:1015F00005D29FED090A0B4880ED000A04E09FED3B
:101600000C0A084880ED000A064890ED000ABDEC7F
:10161000048B10BD78640020000000007FBDC282F2
:10162000FB21F93F540200201F0E12A27CD9124068
:10163000D00F49C008B500204FF4B4739FED682A5D
:10164000DFED671A9FED671ADFED670A9FED670A06
:10165000674A0146009067480EF08AFE00204FF46A
:10166000B4739FED5F2ADFED5E1A9FED5E1AF1EE17
:10167000040A9FED5C0A604A014600905F480EF044
:1016800077FE00204FF4B4739FED552ADFED541A16
:101690009FED541AF1EE040A9FED520A584A014692
:1016A000009058480EF064FE00204FF4B4739FED94
:1016B0004C2ADFED4B1A9FED4B1ADFED4B0A9FEDE5
:1016C0004B0A514A0146009050480EF051FE00204E
:1016D0004FF4B4739FED422ADFED411A9FED411A9A
:1016E000F1EE040A9FED3F0A494A0146009049483D
:1016F0000EF03EFE40F20710474908604748486038
:10170000002003469FED362ADFED351AB3EE0E1AA0
:10171000F0EE080AB2EE0E0A414A014600903E4839
:1017200008300EF025FE9FED3F0A3B4880ED150A7C
:101730009FED3D0A80ED160A002003469FED282A02
:10174000DFED271AB1EE001AF0EE000AB1EE080A3A
:10175000364A01460090304868300EF009FE40F2EB
:101760000910334908602D48503048600020034676
:101770009FED1B2ADFED1A1AB2EE0E1AF7EE000AE1
:10178000B0EE080A2B4A01460090294808300EF0B6
:10179000EFFD9FED240A264880ED150A9FED220AF1
:1017A00080ED160A002003469FED0D2ADFED0C1A8E
:1017B000B7EE081AF0EE000AB1EE080A1E4A01461A
:1017C00000901B4868300EF0D3FD1C4890ED0E0AC7
:1017D0001B4880ED000A9FED020A80ED020A08BD59
:1017E00000000000000048430000C84300004844D7
:1017F000B068002010660020BC68002070660020E1
:10180000C868002090670020D4680020D0660020BF
:10181000E06800203067002078640020D4110020A8
:101820005C02002000003443000034C36802002042
:10183000446500207402002080020020885F0020A0
:10184000EC68002010B51A480078082818D003DC8E
:1018500060B1022824D104E00D280CD00E281FD13D
:101860001DE000F071FB00F0FDFA1AE000F06CFBE7
:1018700000F0F8FA15E000F067FB00F0F3FA10E072
:101880000B4800780B490978884201D00FF0F6FC2C
:1018900000F05EFA00F01EF900F0F0FC01E000E05C
:1018A00000BF00BF024800780249087010BD000068
:1018B00058020020590200200948407C012807D125
:1018C00008488078312803D108200749087002E0D1
:1018D00000200549087004480078044908707047E2
:1018E000CA120020201300205802002059020020B4
:1018F00030B5034613B94FF6FF7030BD09E013F859
:10190000014B82EA0400C0B2054D35F8100080EAB0
:101910002222081EA1F10101F1D11046EDE70000DD
:101920004E24010830B5034605E013F8010B80EAA8
:1019300002040448025D081EA1F10101F5D1104620
:1019400030BD00004D23010810B5084400280CD01C
:10195000064C0822A11C05F0E3FF04F11201BDE8CA
:1019600010400422284605F0DBBF10BD34030020E0
:1019700008B5FFF75FFE4FF4FA600EF0B0FA49E0E9
:101980000FF06EFE00902448007820B1012809D0A5
:10199000022837D135E0FFF78FFFFFF753FF00F044
:1019A0006BFB30E01D48007A022802D11C49087008
:1019B00022E01A48007A012807D11848407A022804
:1019C00003D10E201649087016E01448007A032847
:1019D00007D11248407A022803D10E20104908701E
:1019E0000AE00E48007A032803D10D200C49087044
:1019F00002E00E200A49087007F082F900F03CFB73
:101A000001E000E000BF00BF0FF088FC0221684643
:101A10000FF00CFBB4E70000C2010020CA12002046
:101A20005802002010B52DED028B21484068B0F817
:101A30004C00012811D11F48B0F9060000EE100A31
:101A4000B8EEC00A9FED1C1AC0EE010A1B4890EDCB
:101A5000020A30EE600A80ED020A184890ED020A90
:101A600010EE101A084610F09FFB41EC180B9FED8A
:101A7000140B53EC102B10F077FA10D30F4890EDA5
:101A8000020A10EE101A084610F08EFB41EC180BFB
:101A90009FED0D0B53EC102B10F02CF904D29FEDA1
:101AA0000C0A064880ED020ABDEC028B10BD000056
:101AB00044650020CA12002000409C47EC680020CA
:101AC0007FBDC282FB21F93F557E2C5752C1F0BF2A
:101AD0000000000010B52DED048B5048406890EDDB
:101AE000100A10EE101A084610F05EFB41EC180BBD
:101AF0009FED4B0B53EC102B10F036FA1AD24A48DC
:101B000090ED020A10EE101A084610F04DFB41EC61
:101B1000190B9FED460B53EC102B0FF0DFFE41EC41
:101B2000180B0FF0A9FE404988604FF0FF30414983
:101B3000086049E03948406890ED100A10EE101A2C
:101B4000084610F031FB41EC180B9FED3B0B53ECBA
:101B5000102B10F0CFF819D2334890ED020A10EE96
:101B6000101A084610F020FB41EC190B9FED2F0BCB
:101B700053EC102B10F02EFA41EC180B0FF07CFEFA
:101B80002949886001202B4908601DE02648D0EDD6
:101B9000020A2B48D0F8070000EE100A70EEC00AC7
:101BA000244890ED000AB8EEC00A20EE800AB5EE97
:101BB000C00AF1EE10FA07DB2148D0F807001A49F5
:101BC000886000201B490860174890ED020A10EE5B
:101BD000101A084610F0E8FA41EC180B9FED190BAB
:101BE00053EC102B10F0C0F910D30F4890ED020AFF
:101BF00010EE101A084610F0D7FA41EC180B9FEDC2
:101C0000130B53EC102B10F075F804D29FED110A52
:101C1000054880ED020ABDEC048B10BD4465002030
:101C2000666666666666E63FEC6800202D431CEB40
:101C3000E2363A3F8C020020666666666666D6BF6C
:101C4000201300207FBDC282FB21F93F557E2C5717
:101C500052C1F0BF0000000010B52DED048B3148DB
:101C6000B0F9040000EE100AB8EEC00ADFED2E0A4B
:101C700080EE201A2D4890ED000A30EE410A80EDEA
:101C8000000A90ED000A10EE101A084610F08CFAC7
:101C900041EC180B9FED260B53EC102B10F02AF89B
:101CA00016D8224890ED000A10EE101A084610F0DF
:101CB0007BFA41EC190B9FED200B53EC102B0FF02E
:101CC0000DFE41EC180B0FF0D7FD1849086026E017
:101CD000164890ED000A10EE101A084610F064FA4B
:101CE00041EC180B9FED160B53EC102B10F03CF948
:101CF00015D20E4890ED000A10EE101A084610F0AA
:101D000053FA41EC190B9FED100B53EC102B0FF015
:101D1000E5FD41EC180B0FF0AFFD04490860BDEC88
:101D2000048B10BDCA12002000007A44EC68002029
:101D300000000000008066C00000000000807640C7
:101D4000000000000080664000000000008076C0B7
:101D500010B52DED068B3748D0F80310084610F06B
:101D600023FA41EC1A0B9FED340B53EC102B0FF0C0
:101D700069FE41EC190B9FED320B53EC102B0FF069
:101D8000F5FF41EC180B0FF077FD2F49086008466E
:101D900090ED000A10EE101A084610F005FA41EC1A
:101DA000180B9FED2A0B53EC102B0FF0A3FF16D846
:101DB000254890ED000A10EE101A084610F0F4F9CC
:101DC00041EC190B9FED230B53EC102B0FF086FD0C
:101DD00041EC180B0FF050FD1B49086026E01A4833
:101DE00090ED000A10EE101A084610F0DDF941ECF3
:101DF000180B9FED130B53EC102B10F0B5F815D208
:101E0000114890ED000A10EE101A084610F0CCF9B7
:101E100041EC190B9FED110B53EC102B0FF05EFDF5
:101E200041EC180B0FF028FD07490860BDEC068B4C
:101E300010BD0000201300207FBDC282FB2109409D
:101E40000000000000806640EC68002000000000F8
:101E5000008066C0000000000080764000000000A6
:101E6000008076C010B52DED088B2D484068B0F885
:101E70004C00012829D12B48B0F90C0000EE100AC3
:101E8000B8EEC00A10EE101A084610F08DF941ECB9
:101E90001B0B9FED250B53EC102B0FF0D3FD41ECEA
:101EA000190B234890ED020A10EE101A084610F0A4
:101EB0007BF941EC1A0B53EC192B0FF00FFD41ECA1
:101EC000180B0FF0D9FC1A498860194890ED020AE6
:101ED00010EE101A084610F067F941EC180B9FED50
:101EE000150B53EC102B10F03FF810D3104890ED69
:101EF000020A10EE101A084610F056F941EC180BC1
:101F00009FED0E0B53EC102B0FF0F4FE04D29FED5F
:101F10000D0A074880ED020ABDEC088B10BD0000D9
:101F200044650020CA120020000000000040BF40AD
:101F3000EC6800207FBDC282FB21F93F557E2C5703
:101F400052C1F0BF0000000010B52DED088B3E48D7
:101F5000B0F90A0000EE100AB8EEC00A10EE101A2E
:101F6000084610F021F941EC1B0B9FED380B53ECA8
:101F7000102B0FF067FD41EC190B364890ED000A6D
:101F800010EE101A084610F00FF941EC1A0B53EC42
:101F9000192B10F01FF841EC180B0FF06DFC2D49B8
:101FA0000860084690ED000A10EE101A084610F07E
:101FB000FBF841EC180B9FED280B53EC102B0FF0A6
:101FC00099FE16D8234890ED000A10EE101A084624
:101FD00010F0EAF841EC190B9FED210B53EC102B9C
:101FE0000FF07CFC41EC180B0FF046FC194908601F
:101FF00026E0184890ED000A10EE101A084610F07E
:10200000D3F841EC180B9FED180B53EC102B0FF08D
:10201000ABFF15D20F4890ED000A10EE101A0846DB
:1020200010F0C2F841EC190B9FED110B53EC102B83
:102030000FF054FC41EC180B0FF01EFC0549086032
:10204000BDEC088B10BD0000CA120020000000008B
:1020500000005940EC68002000000000008066C0CD
:102060000000000000807640000000000080664014
:1020700000000000008076C010B52DED108B714877
:1020800090ED000A7048406880ED040A6D4890EDBC
:10209000020A6E48406880ED040A6B48406890ED83
:1020A000041AF0EE410A6A4890ED0E1AB0EE410AA9
:1020B000654808300DF060FF634890ED0B1AB1EEF3
:1020C000411AF0EE410A406890ED111AB0EE410A53
:1020D0005D4868300DF050FF5B484068B0F84C0038
:1020E00001287CD159484068B0F84C0001287BD1C8
:1020F000544890ED020ADFED570A20EE200A10EE58
:10210000101A084610F050F841EC1A0B9FED520BD4
:1021100053EC102B0FF096FC41EC190B0FF0ACFBBD
:1021200008EE100A4A48D0ED0F0AB0EE600AF0EE51
:10213000480A464808300DF01FFF444890ED0B1A3E
:10214000B1EE411AF0EE410A406890ED111AB0EE7E
:10215000410A3E4868300DF00FFF3D4890ED0F0AF0
:1021600010EE101A084610F01FF841EC1F0B9FEDFF
:102170003C0B53EC102B0FF065FC41EC1E0B9FED5C
:10218000360B53EC102B0FF0F1FD41EC1D0B0FF053
:1021900073FB08EE100AB0EE480A0CF0D7FD10EE03
:1021A000104A204610F000F841EC1C0B9FED2E0B5E
:1021B00053EC102B0FF0DAFD41EC1A0B234890ED95
:1021C000230A10EE101A08460FF0EEFF41EC1B0B2D
:1021D00053EC1A2B0FF082FB41EC190B00E003E0EB
:1021E0000FF04AFB22490860174890ED230AB0EE31
:1021F000402A008881B2DFED1F1A9FED1E1ADFED25
:102200001D0A9FED1C0A1C4805F01CFD002000E083
:10221000401C41F270718842FADB0C48008881B2A0
:10222000134890ED002ADFED131A9FED121ADFED2F
:10223000110A9FED100A104805F004FDBDEC108B4B
:1022400010BD0000EC680020786400204465002088
:10225000885F0020000034437FBDC282FB2109401B
:1022600000000000008066403D0AD7A3703DEA3FB1
:10227000980200200000000070060020704710B592
:10228000024692F82030012B01D0022B06D11068B3
:102290004069084314686061002010BD506A40F432
:1022A000802050620120F8E7F0B504460D461E4636
:1022B00094F8207020688368A86800B900E000BF27
:1022C000012F01D0022F7DD103F0806030B903F0DF
:1022D000006018B903F0805000287ED0C3F301617C
:1022E000012088403060A86860B9B5F800C0E8688F
:1022F00040EA4C5C206800F5C07000EB0110C0F8AB
:1023000000C00FE0D5E901C040EACC00D5F80CC010
:1023100040EA0C00D4F800C00CF5C07C0CEB011CAA
:10232000CCF80000D5F810C0206800F5C07000EBB4
:102330000110C0F804C0287D01280ED1206800F5E6
:10234000C07000EB0110406840F4807C206800F50C
:10235000C07000EB0110C0F804C0D079000692F8FC
:1023600006C040EA0C4092F805C040EA0C2092F802
:1023700004C040EA0C00D4F800C00CF5C07C0CEBA3
:10238000011CCCF80C00D078000692F802C040EA9C
:102390000C4092F801C040EA0C2092F800C040EADC
:1023A0000C00D4F800C00CF5C07C0CEB011CCCF880
:1023B0000800206800F5C07000EB0110006840F0D4
:1023C000010C01E00FE008E0206800F5C07000EBB0
:1023D0000110C0F800C00020F0BD606A40F4001099
:1023E00060620120F8E7606A40F4802060620120AA
:1023F000F2E70000F0B504460A46216894F8205040
:10240000012D01D0022D7ED1424901F500710868ED
:1024100040F001000860086820F47C5008600868FB
:10242000566A40EA06200860107D00F01F06012071
:1024300000FA06F3C8699843C861A1F50071D06934
:10244000C8B9D1F80C029843C1F80C02908880B248
:10245000968940EA064601F51070576940F83760E2
:10246000108880B2168940EA064601F51070576957
:1024700000EBC7004660D069012819D1D1F80C02E1
:102480001843C1F80C02908880B2168840EA0646CC
:1024900001F51070576940F83760908980B216894D
:1024A00040EA064601F51070576900EBC700466028
:1024B000906928B9D1F804029843C1F8040204E0F5
:1024C000D1F804021843C1F80402106928B9D1F800
:1024D00014029843C1F8140204E0D1F8140218431E
:1024E000C1F81402106A012804D1D1F81C02184363
:1024F000C1F81C02D1F8000220F00100C1F800026E
:102500000020F0BDFFE7606A40F480206062012097
:10251000F7E7000000640040704770B5044694F887
:102520002050012D01D0022D7DD151B92068C06805
:1025300000F0030080B9606A40F40010606201207E
:1025400070BD2068006900F0030028B9606A40F49B
:10255000001060620120F3E7206800F5D87000EBFE
:102560000110006800F004009060906840B9206895
:1025700000F5D87000EB01100068400D106007E016
:10258000206800F5D87000EB01100068C0085060AA
:10259000206800F5D87000EB0110006800F0020020
:1025A000D060206800F5D87000EB0110406800F0A2
:1025B0000F00082802D30820106108E0206800F509
:1025C000D87000EB0110406800F00F001061206827
:1025D00000F5D87000EB0110406800F47F40000A5D
:1025E0009061206800F5D87000EB01104068000C85
:1025F0005061206800F5D87000EB011080681870F9
:10260000206800F5D87000EB0110806800F47F406E
:10261000000A5870206800F5D87000EB011080683F
:1026200000F47F0000E03CE0000C9870206800F5AA
:10263000D87000EB01108068000ED870206800F59B
:10264000D87000EB0110C0681871206800F5D870D0
:1026500000EB0110C06800F47F40000A5871206848
:1026600000F5D87000EB0110C06800F47F00000C8A
:102670009871206800F5D87000EB0110C068000E5A
:10268000D87131B92068C06840F020002668F06039
:1026900005E02068006940F02000266830610020D5
:1026A0004EE7606A40F480206062012048E70146FE
:1026B000002091F82020012A01D0022A11D10B68B4
:1026C0009B6803F0806303B1401C0B689B6803F0B8
:1026D000006303B1401C0B689B6803F0805303B197
:1026E000401C70472DE9F05F0446002520684669CC
:1026F0002068D0F80490206887682068D0F80CA083
:102700002068D0F810B02068D0F8188006F00100DA
:10271000002855D007F00100C0B101202168886071
:1027200007F0020018B1204600F015FB0EE007F09C
:10273000040010B145F4006508E007F0080010B18E
:1027400045F4805502E0204600F004FB07F4807059
:10275000C8B14FF480702168886007F4007018B128
:10276000204600F0FAFA0EE007F4806010B145F45C
:10277000005508E007F4006010B145F4804502E020
:10278000204600F0E9FA07F48030C8B14FF48030F9
:102790002168886007F4003018B1204600F0DFFAA5
:1027A0000EE007F4802010B145F4004508E007F47E
:1027B000002010B145F4803502E0204600F0CEFA4A
:1027C00006F0080038B10AF0100020B145F4007599
:1027D00010202168C86006F0040040B10AF008002B
:1027E00028B108202168C860204600F00DFA06F0E4
:1027F000020038B12068C06800F0030010B1204624
:1028000000F004FA06F0400038B10BF0100020B1DF
:1028100045F4806510202168086106F0200040B171
:102820000BF0080028B1082021680861204600F05C
:102830005FFA06F0100038B12068006900F003006C
:1028400010B1204600F055FA06F4003040B109F00E
:10285000100028B1102021684860204600F04AFA94
:1028600006F4803040B109F0080028B10820216842
:102870004860204600F074FA06F4004088B309F07E
:10288000040078B306F4807020B108F0010008B1AC
:1028900045F0010506F4007020B108F0020008B10F
:1028A00045F0020506F4806020B108F0040008B18C
:1028B00045F0040506F40060A0B108F0700088B18E
:1028C00008F07000402817D006DC10280BD0202814
:1028D0000CD0302819D10CE0502810D0602814D129
:1028E00010E01DE019E045F008050FE045F0100587
:1028F0000CE045F0200509E045F0400506E045F014
:10290000800503E045F4807500E000BF00BF20684B
:10291000806920F070002168886104202168486087
:102920002DB1606A284360622046FFF7F5FDBDE8DF
:10293000F09F70B504460CB9012070BD94F82000DA
:1029400010B9204600F0B0F82068006840F001009F
:102950002168086000F01AFE05460DE000F016FE42
:10296000401B0A2808D9606A40F4003060620520E4
:1029700084F820000120E0E72068406800F00100B2
:102980000028EBD02068006820F002002168086071
:1029900000F0FCFD05460DE000F0F8FD401B0A28A4
:1029A00008D9606A40F400306062052084F8200095
:1029B0000120C2E72068406800F002000028EBD147
:1029C000207E012806D12068006840F08000216840
:1029D000086005E02068006820F080002168086039
:1029E000607E012806D12068006840F04000216820
:1029F000086005E02068006820F040002168086059
:102A0000A07E012806D12068006840F020002168DF
:102A1000086005E02068006820F020002168086058
:102A2000E07E012806D12068006820F010002168AF
:102A3000086005E02068006840F010002168086028
:102A4000207F012806D12068006840F00800216836
:102A5000086005E02068006820F008002168086030
:102A6000607F012806D12068006840F004002168DA
:102A7000086005E02068006820F004002168086014
:102A8000D4E9020108432169084361690843616888
:102A9000491E08432168C86100206062012084F853
:102AA0002000002049E7000010B586B0044614213C
:102AB00001A8FDF747FE4E492068884241D14D48A4
:102AC0000068401C4B4908600846006801280FD187
:102AD00000BF002000904848006840F00070464960
:102AE00008600846006800F00070009000BF00BF5A
:102AF00000BF0020009040481038006840F00800F7
:102B00003D49103908600846006800F00800009050
:102B100000BF00BF0320019002200290002003901C
:102B2000032004900920059001A9344800F024FCFA
:102B300000220521142001F073F9142001F05CF942
:102B400054E02F492068884250D100BF00200090F7
:102B50002948006840F080602749086008460068FE
:102B600000F08060009000BF00BF22480068401C59
:102B7000204908600846006801280FD100BF0020E6
:102B800000901D48006840F000701B49086008462E
:102B9000006800F00070009000BF00BF00BF002080
:102BA000009015481038006840F0020012491039B2
:102BB00008600846006800F00200009000BF00BFF7
:102BC00060200190022002900020039003200490D6
:102BD0000920059001A90B4800F0CEFB0022052139
:102BE000402001F01DF9402001F006F906B010BDAB
:102BF000006400402800002040380240000C0240E1
:102C000000680040000402407047000010B58AB020
:102C1000044601AB03AA00212046FFF77EFC40F2E8
:102C200005220398811A904221D014DC40F202223E
:102C3000A0EB0201904217D008DC072839D0092800
:102C40003CD0A0F2012000283ED10CE001290CD09C
:102C5000022939D10AE0072936D2DFE801F0350927
:102C60000A0B0C0D0E0000BF00BF00BF00BF00BF6D
:102C700000BF00BF00BF00BF00BF0398401E174940
:102C800008701748844209D1097801EB8101154A7F
:102C900002EB011001A90CF0B7FD09E00F4909781A
:102CA00001EB8101104A02EB011001A90CF0ACFD0F
:102CB0000AE00E4901A80CF0FFFC05E00B49503179
:102CC00001A80CF0F9FC00BF00BF2068406940F08B
:102CD0000200216848610AB010BD000065000020B4
:102CE00048060020940B0020040F0020D41100207F
:102CF00070477047704770B5044694F8200001286B
:102D000022D1022084F820002068006820F0010011
:102D10002168086000F03AFC05460DE000F036FC42
:102D2000401B0A2808D9606A40F400306062052020
:102D300084F82000012070BD2068406800F0010088
:102D40000028EBD16062F6E7606A40F40020606220
:102D50000120F0E770477047704770477047704731
:102D6000704770B50446A56D00F010FC064694F857
:102D70003500022808D08020606500BF002084F85C
:102D8000340000BF012070BD2068006820F01600EC
:102D9000216808602068406920F08000216848614F
:102DA000206C08B9A06C28B12068006820F00800E9
:102DB000216808602068006820F001002168086030
:102DC00010E000F0E3FB801B05280BD92020606594
:102DD000032084F8350000BF002084F8340000BFD1
:102DE0000320D0E72068006800F001000028E8D147
:102DF00094F85C103F208840A860012084F83500DA
:102E000000BF002084F8340000BF00BFBBE70146CC
:102E100091F83500022803D08020486501207047D2
:102E2000052081F835000868006820F001000A6874
:102E300010600020F3E70000F8B504460020009081
:102E40008C4800684FF41651B0FBF1F7A56D2E6861
:102E500094F85C1008208840304098B120680068E1
:102E600000F0040070B12068006820F004002168C0
:102E7000086094F85C1008208840A860606D40F0FD
:102E80000100606594F85C1001208840304068B112
:102E90002068406900F0800040B194F85C10012087
:102EA0008840A860606D40F00200606594F85C1096
:102EB00004208840304068B12068006800F00200BB
:102EC00040B194F85C1004208840A860606D40F028
:102ED0000400606594F85C1010208840304078B39E
:102EE0002068006800F0080050B394F85C101020CF
:102EF0008840A8602068006800F4802080B12068C5
:102F0000006800F4002028B9206CC8B12046216C6C
:102F1000884715E0A06C98B12046A16C88470FE067
:102F20002068006800F4807028B92068006820F0EC
:102F3000080021680860206C10B12046216C884789
:102F400094F85C10202088403040002865D020682C
:102F5000006800F0100000285FD094F85C1020207A
:102F60008840A86094F83500052828D120680068BA
:102F700020F01600216808602068406920F0800079
:102F800021684861206C08B9A06C28B120680068ED
:102F900020F008002168086094F85C103F20884009
:102FA000A860012084F8350000BF002084F83400B8
:102FB00000BF206D10B12046216D8847F8BD206804
:102FC000006800F4802080B12068006800F40020D0
:102FD00028B9606C10B12046616C88471DE0E06B39
:102FE000D8B12046E16B884717E02068006800F4FC
:102FF000807068B92068006820F0100021680860BF
:10300000012084F8350000BF002084F8340000BFA0
:10301000E06B10B12046E16B8847606D38B3606D9E
:1030200000F00100F0B1052084F835002068006848
:1030300020F001002168086000BF0098401C00904B
:10304000B84200D905E02068006800F001000028BF
:10305000F3D100BF012084F8350000BF002084F8C0
:10306000340000BFE06C10B12046E16C884700BF1F
:10307000A4E70000380000202DE9F04104460025B7
:1030800000F084FA074614B90120BDE8F081606AB7
:1030900000B100BF022084F8350000BF002084F892
:1030A000340000BF2068006820F00100216808603B
:1030B0000AE000F06BFAC01B052805D920206065E6
:1030C000032084F83500E0E72068006800F0010084
:1030D0000028EED12068056821480540D4E90101A7
:1030E0000843E16808432169084361690843A1690D
:1030F0000843E1690843216A08430543606A0428DC
:1031000003D1D4E90B01084305432068056020681A
:10311000456925F00705606A0543606A04280DD1FA
:10312000A06A0543E06A48B12046FEF797F928B146
:1031300040206065012084F83500A6E720684561DD
:103140002046FEF771F9064694F85C103F2088404F
:10315000B06000206065012084F83500002094E70D
:103160003F8010F02DE9F04104460D4616461F46FB
:103170004FF0000800BF94F83400012802D102206B
:10318000BDE8F081012084F8340000BF94F83500D8
:10319000012811D1022084F83500002060653B46EB
:1031A000324629462046FEF7AEF92068006840F016
:1031B00001002168086006E000BF002084F83400A8
:1031C00000BF4FF002084046DAE72DE9F047044619
:1031D0000D4616461F464FF00008D4F8589000BF21
:1031E00094F83400012802D10220BDE8F0870120C4
:1031F00084F8340000BF94F83500012825D102205E
:1032000084F83500002060653B463246294620465A
:10321000FEF779F994F85C103F208840C9F808005F
:103220002068006840F0160021680860206C28B112
:103230002068006840F00800216808602068006885
:1032400040F001002168086006E000BF002084F81B
:10325000340000BF4FF002084046C6E770B5044690
:1032600000F094F906462546681C10B10448007821
:10327000054400BF00F08AF9801BA842FAD370BD54
:103280003400002010B50446102C12D12A480078D2
:1032900040F00100284908702848007840F00100FB
:1032A0002649087026480078002844D00CF08EFB90
:1032B00041E0202C0BD12348007840F00100214947
:1032C00008701F48007880B30CF080FB33E0082CB6
:1032D00016D11D48007840F001001B4908700846CF
:1032E000007800F001000870F8B10846007820F07E
:1032F000010008700846007840F0020008701AE0EB
:10330000012C13D10EF09EF9012814D00F4910485A
:1033100000680DF0D9FE0D48006830B120070D4956
:103320000860BFF34F8FBFF36F8F04E0022C02D110
:1033300001200949087010BD1A0100201B0100205E
:103340001D010020190100201C010020B4010020F3
:10335000F400002004ED00E02001002010B5044638
:1033600004480068204020B1024804602046FFF76E
:1033700089FF10BD143C0140F8B502460B460025FC
:10338000002400200021D6E0012606FA01F51E687F
:1033900006EA0504AC4274D11E7906F00306012E3C
:1033A00004D01E7906F00306022E13D190684F0058
:1033B0000326BE40B0434F00DE68BE4030439060FD
:1033C000506801268E40B0431E79C6F300168E4029
:1033D000304350601E7906F00306032E09D0D068F2
:1033E0004F000326BE40B0434F009E68BE403043AE
:1033F000D0601E7906F00306022E13D1CF0802F129
:10340000200656F827004E07F70E0F26BE40B043A1
:103410004F07FF0E1E69BE403043CF0802F1200661
:1034200046F8270010684F000326BE40B0431E79BF
:1034300006F003064F00BE40304310605E6806F49D
:103440004036002E76D000BF002600963C4E3668EF
:1034500046F480463A4F3E603E46366806F4804663
:10346000009600BF00BF374E8F0856F827008E0722
:10347000370F0F26BE40B043334EB24202D1002672
:1034800024E057E0314EB24201D101261EE0304E19
:10349000B24201D1022619E02E4EB24201D10326DA
:1034A00014E02D4EB24201D104260FE02B4EB24261
:1034B00001D105260AE02A4EB24201D1062605E0D6
:1034C000284EB24201D1072600E008268F073F0FA1
:1034D000BE4030431B4E8F0846F82700224E30680E
:1034E000A0435E6806F4801606B120431E4E30608D
:1034F000361D3068A0435E6806F4001606B120430E
:10350000194E361D3060184E361F3068A0435E6875
:1035100006F4003606B12043134E361F3060361FC6
:103520003068A0435E6806F4803606B120430E4E34
:10353000083E3060491C1029FFF426AFF8BD00009A
:1035400044380240083801400000024000040240B4
:1035500000080240000C024000100240001402402B
:1035600000180240001C0240083C014010B54269AE
:1035700021EA020302EA010443EA0443836110BD25
:103580000AB1816101E00B04836170470148006862
:10359000704700002C00002070B504460CB90120D3
:1035A00070BD94F83D0028B9002084F83C00204606
:1035B00000F010FB242084F83D002068006820F013
:1035C0000100216808602068006840F4004021681C
:1035D00008602068006820F400402168086001F05D
:1035E00007FC05465C496068884206D85B4885420E
:1035F00001D2012007E0002005E05948854201D2B0
:10360000012000E00020012800D1C9E75548B5FBA2
:10361000F0F62068406820F03F00304321684860A1
:103620004D496068884201D8701C07E04FF49670DD
:1036300070434FF47A71B0FBF1F0401C2168096AC5
:1036400021F03F01084321680862434960688842CD
:1036500014D8681E61684900B0FBF1F0401CC0F34B
:103660000B00042801D204203DE0681E6168490077
:10367000B0FBF1F0401CC0F30B0034E0A06838B997
:10368000681E616801EB4101B0FBF1F0401C0AE0EB
:10369000681E616801EBC10202EB0111B0FBF1F0A1
:1036A000401C40F48040C0F30B0008B901201AE030
:1036B000A06848B9681E616801EB4101B0FBF1F0F8
:1036C000401CC0F30B000CE0681E616801EBC102F6
:1036D00002EB0111B0FBF1F0401CC0F30B0040F411
:1036E000804040F400402168C9694CF6FF72914364
:1036F00008432168C861D4E90701084321680968C3
:1037000021F0C001084321680860D4E90310084390
:103710002168896848F2FF32914308432168886034
:10372000D4E9050108432168C96821F0FF01084375
:103730002168C8602068006840F0010021680860C6
:1037400000202064202084F83D000020206384F8BD
:103750003E0000BF24E70000A086010080841E0018
:1037600000093D0040420F002DE9FC5F04460F4672
:1037700090469946DDE90CAB0E9EFFF707FF054624
:1037800094F83D00202870D119230122B549204624
:10379000009503F0A2F810B10220BDE8FC9F00BF25
:1037A00094F83C00012801D10220F6E7012084F8BA
:1037B0003C0000BF2068006800F0010028B92068C4
:1037C000006840F00100216808602068006820F46B
:1037D000006021680860222084F83D00402084F8C1
:1037E0003E0000202064C4F824A0A4F82AB0608D14
:1037F00020859D48E0624B46424639462046CDE949
:10380000006502F017FF08B10120C6E7208D88B9D6
:1038100000BF002001902068406901902068806905
:10382000019000BF00BF2068006840F4007021686C
:10383000086040E0208D012818D12068006820F43D
:1038400080602168086000BF002001902068406906
:10385000019020688069019000BF00BF2068006867
:1038600040F400702168086025E0F8E0208D02280F
:1038700016D12068006820F4806021680860206804
:10388000006840F400602168086000BF00200190DB
:1038900020684069019020688069019000BF0AE0BB
:1038A00000BF002001902068406901902068806975
:1038B000019000BF00BFC3E0208D03287ED8208D7B
:1038C000012815D12A463146204603F0E2F808B116
:1038D000012062E720680069616A0870606A401C24
:1038E0006062208D401E2085608D401E6085A7E0AF
:1038F000208D02282AD1334600225C4920460095BB
:1039000002F0EBFF08B1012047E72068006840F4AF
:1039100000702168086020680069616A0870606A48
:10392000401C6062208D401E2085608D401E608599
:1039300020680069616A0870606A401C6062208DBE
:10394000401E2085608D401E608579E03346002250
:1039500046492046009502F0C0FF08B101201CE74F
:103960002068006820F48060216808602068006991
:10397000616A0870606A401C6062208D401E20856C
:10398000608D401E608533460022384920460095F0
:1039900002F0A3FF08B10120FFE62068006840F4B0
:1039A00000702168086020680069616A0870606AB8
:1039B000401C6062208D401E208500E010E0608D7C
:1039C000401E608520680069616A0870606A401C5A
:1039D0006062208D401E2085608D401E60852FE036
:1039E0002A463146204603F054F808B10120D4E6B7
:1039F00020680069616A0870606A401C6062208DFE
:103A0000401E2085608D401E608520684069C0F39F
:103A10008000A8B1208D032805D12068006820F41B
:103A200080602168086020680069616A0870606AC7
:103A3000401C6062208D401E2085608D401E608588
:103A4000208D00287FF438AF202084F83D0000202E
:103A500084F83E0000BF84F83C0000BF9DE60220D1
:103A60009BE60000020010000000FFFF04000100C0
:103A70002DE9FC5F04460F4690469946DDE90CAB04
:103A80000E9EFFF783FD054694F83D0020287DD16A
:103A9000192301224D492046009502F01EFF10B166
:103AA0000220BDE8FC9F00BF94F83C00012801D132
:103AB0000220F6E7012084F83C0000BF206800687F
:103AC00000F0010028B92068006840F0010021687A
:103AD00008602068006820F40060216808602120E8
:103AE00084F83D00402084F83E0000202064C4F8A3
:103AF00024A0A4F82AB0608D20853548E0624B46AA
:103B0000424639462046CDE9006502F043FE08B141
:103B10000120C6E731E02A463146204602F0FEFF8A
:103B200050B1206C042805D12068006840F4007072
:103B3000216808600120B4E7606A007821680861A4
:103B4000606A401C6062208D401E2085608D401E92
:103B5000608520684069C0F3800070B1208D60B13D
:103B6000606A007821680861606A401C6062208D8C
:103B7000401E2085608D401E6085208D0028CAD1A2
:103B80002A463146204602F075FE00E01CE050B1A6
:103B9000206C042805D12068006840F4007021687A
:103BA000086001207DE72068006840F4007021680B
:103BB0000860202084F83D00002084F83E0000BF0B
:103BC00084F83C0000BF6CE702206AE702001000A6
:103BD0000000FFFF10B586B00446142101A8FCF7D1
:103BE000B1FD2A49206888424DD100BF00200090D5
:103BF0002748006840F0040025490860084600682E
:103C000000F00400009000BF00BF00BF0020009043
:103C10000846006840F0010008600846006800F0AF
:103C20000100009000BF00BF4815019012200290D3
:103C300001200390032004900420059001A9154859
:103C4000FFF79AFB4FF48070019012200290012040
:103C50000390032004900420059001A90E48FFF76B
:103C60008BFB00BF0020009009481030006840F432
:103C700000000749103108600846006800F40000A1
:103C8000009000BF00BF06B010BD0000005C004007
:103C9000303802400008024000000240034800683B
:103CA0000349097808440149086070472C00002046
:103CB0003400002010B50D48006840F400700B4936
:103CC00008600846006840F48060086008460068A4
:103CD00040F480700860032000F0E0F80F2000F04E
:103CE00007F800F05FF8002010BD0000003C024023
:103CF0002DE9F04188B004460027B84600BF0020F7
:103D000001902448006840F00100224908600846FC
:103D1000006800F00100019000BF00BF02A903A8E5
:103D200001F03EF8069F1FB901F062F8054602E077
:103D300001F05EF845001848B5FBF0F0A0F101086D
:103D40004FF080401549086040F2E7311348C160E8
:103D5000C0F80480002101618160816101F09AFD59
:103D6000064696B90D4801F005FE06466EB91C20C0
:103D700000F042F8102C07D2002221461C2000F04F
:103D80004FF80748046000E00126304608B0BDE85F
:103D9000F08100004038024040420F004C0B0020F0
:103DA0003000002008B500BF0020009011480068D6
:103DB00040F480400F4908600846006800F48040E5
:103DC000009000BF00BF00BF00200090081F0068E7
:103DD00040F08050091F08600846006800F08050DD
:103DE000009000BF00BF00220F21901E00F018F8C5
:103DF00008BD0000443802400146084600280DDB9B
:103E000000BF00BF00F01F0301229A4043099B003E
:103E100003F1E023C3F8002100BF00BF00BF7047DB
:103E20002DE9F05F80460D46164600270AF0B4FDE6
:103E3000074639462A46334601F00700C0F1070A13
:103E4000BAF1040F02D94FF0040A01E0C0F1070AE9
:103E5000D14600F1040ABAF1070F02D24FF0000A6E
:103E600001E0A0F1030AD4464FF0010A0AFA09FA68
:103E7000AAF1010A0AEA020A0AFA0CFA4FF0010B47
:103E80000BFA0CFBABF1010B0BEA030B4AEA0B0438
:103E9000214640460AF088FDBDE8F09F00BF00F0D3
:103EA0000702064B19684FF6FF031940044B0B43FA
:103EB00043EA0221014B196000BF70470CED00E09E
:103EC0000000FA0570470246106841620020704702
:103ED000F0B5034615461868446A21B944EA05401E
:103EE0001E68B06219E01868806A04EB1044002272
:103EF00008E0186800F5827050F8220004EB1044C6
:103F0000501CC2B2481E9042F3D844EA05471868D4
:103F100000F582704E1E40F826700020F0BDD0F8EB
:103F2000E00409F07FB901EBC10200EB8202D0F896
:103F3000E004126A09F0A0B801EBC10200EB8202B2
:103F4000D0F8E004D2F8602209F004B9D0F8E00417
:103F500009F06AB92DE9F04104460D4605F08000EC
:103F6000802808D105F00F0000EBC00104F1140017
:103F700000EB810607E005F00F0000EBC00104F53F
:103F8000157000EB8106314620680AF073FA074687
:103F90003846BDE8F08170B504460E4606F0800054
:103FA00080280AD106F00F0000EBC00104F11400D4
:103FB00000EB81050120687009E006F00F0000EBBE
:103FC000C00104F5157000EB81050020687006F053
:103FD0000F00287000BF94F89404012801D102203A
:103FE00070BD012084F8940400BF2946206809F0C0
:103FF000D5FD00BF002084F8940400BF00BFEFE7A8
:1040000070B504460E4606F00F002179884201D9AA
:10401000012070BD06F0800080280AD106F00F0054
:1040200000EBC00104F1140000EB81050120687071
:1040300009E006F00F0000EBC00104F5157000EB7D
:104040008105002068700020A87006F00F0028701D
:1040500000BF94F89404012801D10220D9E701207F
:1040600084F8940400BF2946206809F095FF00BF3A
:10407000002084F8940400BF00BFCAE7024601F0A4
:104080000F0000EBC00302F5157000EB83004069E0
:1040900070472DE9F04705460E4690461F464FF003
:1040A000000906F0800080280AD106F00F0000EB1E
:1040B000C00105F1140000EB81040120607009E0EB
:1040C00006F00F0000EBC00105F5157000EB810450
:1040D0000020607006F00F002070C4F8088027717F
:1040E000607808B120786083022F01D100206071D0
:1040F00000BF95F89404012802D10220BDE8F087A2
:10410000012085F8940400BF2146286809F05AFC74
:1041100000BF002085F8940400BF4846EEE72DE973
:10412000F04105460E461746984606F00F0000EB94
:10413000C00105F5157000EB8104E760C4F810803C
:1041400000206061607006F00F002070A8790128DF
:1041500000D1E761AA792146286809F0B1FF002063
:10416000BDE8F08170B504460D4605F00F002179D9
:10417000884201D9012070BD05F0800080280AD155
:1041800005F00F0000EBC00104F1140000EB810604
:104190000120707007E005EBC50104F5157000EB18
:1041A0008106002070700120B07005F00F003070A3
:1041B00000BF94F89404012801D10220DBE701201C
:1041C00084F8940400BF3146206809F02CFF05F004
:1041D0000F0028B9A17904F29C42206809F0A4FEDE
:1041E00000BF002084F8940400BF00BFC3E72DE99E
:1041F000F04105460E461746984606F00F0000EBC4
:10420000C00105F1140000EB8104E760C4F81080E0
:10421000002060610120607006F00F002070A87916
:10422000012800D1E761AA792146286809F048FFF2
:104230000020BDE8F0812DE9FE4F0446D4F800B01F
:104240005E4620680AF0F8F9002874D120680AF068
:1042500032FA08B9BDE8FE8F40F608008059C0F375
:104260000D20C4F8D40420680AF025FA00F00200FA
:10427000022805D12068406900F0020021684861E9
:1042800020680AF018FA00F01000102845D12068C4
:10429000806920F0100021688861DBF8209009F027
:1042A0000F0000EBC00104F5157000EB810AC9F3A3
:1042B000434002281AD147F6F07009EA000030B3F3
:1042C000C9F30A125846DAF80C100AF0F9F9C9F3E2
:1042D0000A11DAF80C000844CAF80C00C9F30A11F4
:1042E000DAF814000844CAF8140010E0C9F3434097
:1042F00006280CD1082204F29C4158460AF0E0F945
:10430000C9F30A11DAF814000844CAF81400206846
:10431000806940F010002168886120680AF0CBF9BC
:1043200000F40020B0F5002F7BD1002520680AF0B2
:1043300092F9029072E0E1E2029800F00100002898
:1043400068D0E9B220680AF0A9F9804608F00100B7
:1043500048B1012106F5306000EB45108160294627
:10436000204604F0E3F908F00800082809D10821E4
:1043700006F5306000EB451081602946204604F0C8
:10438000A3F908F01000102805D1102106F53060BF
:1043900000EB4510816008F00200022824D1DBF810
:1043A000140000F08000802807D140F604008059F6
:1043B00040F4806140F60400815105EBC50104F52D
:1043C000157000EB810A9AF80300012806D100203D
:1043D0008AF80300E9B2204600F096FA022106F5B9
:1043E000306000EB4510816008F02000202805D1E6
:1043F000202106F5306000EB4510816008F4005084
:10440000B0F5005F06D14FF4005106F5306000EBC7
:10441000451081606D1C02984008029002980028A7
:104420008AD120680AF047F900F48020B0F5802F87
:104430007DD120680AF005F9029000259AE00298E3
:1044400000F00100002873D0E9B220680AF00DF9ED
:10445000804608F00100F0B305F00F01012088400C
:10446000019040F634008159019821EA000040F69D
:1044700034018851012106F5106000EB4510816080
:10448000A079012824D105EBC50104F1140000EB4B
:10449000810005EBC502C16804F1140000EB820045
:1044A0008068014405EBC50204F1140000EB8200B2
:1044B000C1606DB905EBC50104F1140000EB81008A
:1044C000006928B904F29C420121206809F02CFD02
:1044D000E9B2204600E001E0FFF725FD08F0080002
:1044E000082805D1082106F5106000EB4510816011
:1044F00008F01000102805D1102106F5106000EB1F
:104500004510816008F04000402805D1402106F5A3
:10451000106000EB4510816008F0020002281DD1F8
:10452000294658460AF04BF805EBC50101E025E0A5
:104530001CE004F1140000EB810A9AF80300012842
:1045400006D100208AF80300E9B2204600F0D8F92D
:10455000022106F5106000EB4510816008F0800034
:10456000802803D12946204604F082F96D1C029868
:1045700040080290029800287FF461AF20680AF09A
:104580009AF800F00040B0F1004F1CD140F6040052
:10459000805920F0010140F60400815194F8CC04C8
:1045A000012807D1002084F8CC0400212046FFF721
:1045B00089FC02E0204600F0CAFA2068406900F059
:1045C00000402168486120680AF075F800F4006036
:1045D000B0F5006F0ED140F60800805900F00100E0
:1045E00010B1204600F002FB2068406900F4006032
:1045F0002168486120680AF05EF800F48050B0F548
:10460000805F7ED140F60400805920F0010140F621
:10461000040081511021206809F0D1FF002732E009
:104620004FF67F3106F5106000EB4710816006F50C
:10463000106000EB4710006820F4001106F51060D0
:1046400000EB471001604FF67F3106F5306000EB5C
:104650004710816006F5306000EB4710006820F4D9
:10466000001106F5306000EB4710016006F5306080
:1046700000EB4710006840F0006106F5306000EB89
:10468000471001607F1C2079B842C9D840F61C0051
:10469000805940F0011140F61C008151E07B70B15F
:1046A000D6F8840840F00B01C6F8841840F64400A0
:1046B000805940F00B0140F6440081510FE040F674
:1046C0001400805942F22B01084340F6140188512E
:1046D000081F805940F00B014FF401608151D6F85A
:1046E000000820F4FE60C6F80008A17904F29C429C
:1046F000206809F019FC2068406900F480502168A6
:1047000000E000E04861206809F0D5FF00F40050A7
:10471000B0F5005F17D1206809F0BCF9206809F0F6
:1047200078FFE07100F05EFB0090E279206800996C
:104730000AF048F8204600F0F3F92068406900F4D8
:10474000005021684861206809F0B5FF00F00800BA
:10475000082808D1204600F0FEF92068406900F0E2
:10476000080021684861206809F0A5FF00F080007A
:10477000802818D1DBF8180020F08000CBF8180052
:1047800001250DE005EBC50104F5157000EB810076
:10479000C078012803D1E9B22046FFF7DBFB6D1C8E
:1047A0002079A842EED8206809F085FF00F4801037
:1047B000B0F5801F2DD1012522E006F5106000EB39
:1047C0004510D0F8009005EBC50104F1140000EB92
:1047D00081000079012812D109F00040B0F1004FAA
:1047E0000DD1012105EBC50204F1140000EB82009C
:1047F000C170E8B240F080012046FFF7ABFB6D1CB2
:104800002079A842D9D82068406900F48010216836
:104810004861206809F04FFF00F40010B0F5001F58
:1048200044D1012538E006F5306000EB4510D0F8A2
:10483000009005EBC50104F5157000EB81000079CF
:10484000012828D109F00040B0F1004F23D109F42C
:10485000803094F8D41401F0010188421BD1012169
:1048600005EBC50204F5157000EB8200C170DBF8A2
:10487000180040F08000CBF81800DBF8140000F0BE
:10488000800040B940F60400805940F4007140F6C1
:104890000400815103E06D1C2079A842C3D800BFF9
:1048A0002068406900F4001021684861206809F020
:1048B00002FF00F08040B0F1804F08D12046FFF7A2
:1048C0002EFB2068406900F0804021684861206824
:1048D00009F0F1FE00F0040004280FD12068D0F8A0
:1048E000049009F00400042802D12046FFF72EFBB3
:1048F0002068406840EA09002168486000BFA9E4D8
:10490000D0F8E00408F0E4BCD0F8E00408F0F5BC0E
:10491000F8B504460CB90120F8BD266894F8950452
:1049200028B9002084F89404204600F0A1F8032060
:1049300084F89504B6F1A04F01D10021A17120683F
:1049400009F0EAFA207C8DF8000094E80F0009F0E5
:10495000B5F820B1022084F895040120DCE700219D
:10496000206809F0DDFE20B1022084F895040120C2
:10497000D2E7002531E0012105EBC50204F1140066
:1049800000EB8200417005EBC50104F1140000F852
:10499000215005EBC50100EB81004583002105EBAB
:1049A000C50204F1140000EB8200017105EBC502A1
:1049B00004F1140000EB8200816005EBC50204F1F4
:1049C000140000EB8200C16005EBC50204F1140085
:1049D00000EB82000161681CC5B22079A842CADCE4
:1049E00000252AE0002105EBC50204F5157000EB57
:1049F0008200417005EBC50104F5157000F82150E7
:104A0000002105EBC50200EB8200017105EBC50238
:104A100004F5157000EB8200816005EBC50204F51A
:104A2000157000EB8200C16005EBC50204F515703E
:104A300000EB82000161681CC5B22079A842D1DC7C
:104A4000207C8DF8000094E80F0009F071F920B186
:104A5000022084F8950401205EE7002060740120A4
:104A600084F89504206809F051F9002054E700000B
:104A7000F0B58BB0002406940794089409940A9426
:104A80000068B0F1A04F43D1224D286840F00100EA
:104A90002860286800F00100009004940594A81490
:104AA000019001200290022603961B4F01A938466F
:104AB000FEF762FC0520FEF7D1FB286840F00100FC
:104AC0002860286800F0010000904FF4C050019069
:104AD00002960394032004900A20059001A9384609
:104AE000FEF74AFC281D016841F0800101600B4877
:104AF000016841F480410160006800F4804000904A
:104B0000002205214320FFF78BF94320FFF774F9BA
:104B10000BB0F0BD30380240000002404438024083
:104B200070B504460125E07900280ED0022801D096
:104B3000FCF70FFD2946D4F8E00408F04FFCD4F848
:104B4000E004BDE8704008F002BC0025F2E7D0F8B0
:104B5000E00408F02CBCD0F8E00408F032BC70B5DA
:104B600004460D4600BF94F89404012801D10220A8
:104B700070BD012084F8940400BF65742946206844
:104B800009F002FE00BF002084F8940400BF00BFBB
:104B9000EEE7D0F8E02400F29C41104608F02ABC71
:104BA00070B50446256800BF94F89404012801D12B
:104BB000022070BD012084F8940400BFE86800F072
:104BC000400030B1607B012803D1A86B40F48030F5
:104BD000A863206809F0C4FC206809F085F800BFCC
:104BE000002084F8940400BF00BFE2E710B504463B
:104BF000D4F8E00408F042FC2068D0F8001E41F030
:104C00000101C0F8001EE07A002804D002480168C3
:104C100041F00601016010BD10ED00E070B50446E2
:104C20000D460CB9012070BD5848006800F007001F
:104C3000A84209D255490D700846006800F00700E7
:104C4000A84201D00120EEE7207800F002000228FF
:104C50001DD1207800F00400042805D14C480068DC
:104C600040F4E0504A490860207800F00800082825
:104C700005D14748006840F4604045490860444811
:104C8000006820F0F000A1680843414908602078DE
:104C900000F00100A8B36068012807D13C4808383B
:104CA0000068C0F34040B8B90120BCE76068022842
:104CB00002D06068032807D1354808380068C0F37F
:104CC000406048B90120AEE7314808380068C0F3B9
:104CD000400008B90120A6E72D48006820F0030035
:104CE000616808432A490860FEF750FC064609E05F
:104CF000FEF74CFC801B41F28831884202D9032028
:104D000091E707E02248006800F00C006168B0EB12
:104D1000810FEDD11D48006800F00700A84209D9B5
:104D20001A490D700846006800F00700A84201D03B
:104D3000012078E7207800F00400042807D1144807
:104D4000006820F4E050E1680843114908602078C9
:104D500000F00800082808D10D48006820F46040E1
:104D6000216940EAC1000A49086000F061F8084979
:104D70000968C1F30311074A515CC840064908603D
:104D800006480068FEF7B4FF00204CE7003C0240F4
:104D90000838024034230108380000203000002089
:104DA0000F2202600D4A126802F0030242600B4AB1
:104DB000126802F0F0028260084A126802F4E052BF
:104DC000C260064A126802F46042D2080261044AD4
:104DD000126802F007020A607047000008380240BB
:104DE000003C024001480068704700003800002085
:104DF00000B5FFF7F7FF04490968C1F38221034AB0
:104E0000515CC84000BD000008380240442301083E
:104E100000B5FFF7E7FF04490968C1F34231034ACF
:104E2000515CC84000BD000008380240442301081E
:104E30002DE9F047002400250026A14625480068FA
:104E400000F00C0020B1042805D008283AD105E074
:104E5000DFF8849039E0DFF8849036E01D48001FC9
:104E6000006800F03F041B48001F006800F4800049
:104E700078B11A481749091F0968C1F38811A0FBC6
:104E800001700146224600233846FBF775FA0546B5
:104E90000EE011480F49091F0968C1F38811A0FBF2
:104EA00001700146224600233846FBF765FA0546A5
:104EB0000848001F0068C0F30140401C4600B5FBD5
:104EC000F6F902E0DFF8109000BF00BF4846BDE8E9
:104ED000F0870000083802400024F400001BB700EF
:104EE000F8B504460CB90120F8BD207800F00100A7
:104EF000002874D0F948006800F00C0004280DD098
:104F0000F648006800F00C00082813D1F348001F91
:104F1000006800F48000B0F5800F0BD1EF4808382E
:104F20000068C0F34040002859D06068002856D17E
:104F30000120D9E700BF6068B0F5803F08D1E7489D
:104F40000838006840F48030E449083908601EE001
:104F50006068B0F5A02F0DD1E0480838006840F433
:104F60008020DE49083908600846006840F4803037
:104F700008600CE0D9480838006820F48030D74930
:104F8000083908600846006820F48020086000BFE7
:104F9000606890B1FEF7FAFA054606E0FEF7F6FA09
:104FA000401B642801D903209EE7CC4808380068DC
:104FB000C0F340400028F1D011E0FEF7E7FA0546C3
:104FC00006E0FEF7E3FA401B642801D903208BE7D3
:104FD000C24808380068C0F340400028F1D120786A
:104FE00000F0020002285FD1BC48006800F00C000D
:104FF00058B1BA48006800F00C0008281CD1B74826
:10500000001F006800F48000B0B9B4480838006898
:10501000C0F3400020B1E068012801D0012063E71F
:10502000AE480838006820F0F800216940EAC10065
:10503000AA490839086037E0E06800B30120A849B0
:105040000860FEF7A3FA054606E0FEF79FFA401B4C
:10505000022801D9032047E7A04808380068C0F3B8
:1050600040000028F1D09D480838006820F0F80082
:10507000216940EAC10099490839086014E000201C
:1050800097490860FEF782FA054606E0FEF77EFAC9
:10509000401B022801D9032026E790480838006801
:1050A000C0F340000028F1D1207800F00800082863
:1050B0002CD16069A8B101208A490860FEF766FA20
:1050C000054606E0FEF762FA401B022801D90320DC
:1050D0000AE782486C300068C0F340000028F1D035
:1050E00014E000207F490860FEF750FA054606E00C
:1050F000FEF74CFA401B022801D90320F4E677485A
:105100006C300068C0F340000028F1D1207800F036
:105110000400042870D1002770483830006800F07F
:10512000805090B900BF002000906C483830006873
:1051300040F080506949383108600846006800F046
:105140008050009000BF00BF01276748006800F44E
:105150008070B0B96448006840F4807062490860AB
:10516000FEF714FA054606E0FEF710FA401B022887
:1051700001D90320B8E65C48006800F4807000287C
:10518000F2D000BFA068012808D1544868300068F8
:1051900040F001005149683108601DE0A068052811
:1051A0000DD14E486830006840F004004B4968312A
:1051B00008600846006840F0010008600CE04748BD
:1051C0006830006820F001004449683108600846F2
:1051D000006820F00400086000BFA068A8B1FEF7D6
:1051E000D5F9054609E0FEF7D1F9401B41F28831B7
:1051F000884202D9032077E626E038486830006804
:10520000C0F340000028EED013E0FEF7BFF90546DA
:1052100008E0FEF7BBF9401B41F28831884201D912
:10522000032061E62D4868300068C0F34000002884
:10523000EFD1012F07D129483830006820F0805085
:1052400026493831086000BFA069002845D02348AE
:10525000006800F00C0008285DD0A069022845D144
:1052600000201F490866FEF791F9054606E0FEF7A3
:105270008DF9401B022801D9032035E6174808386C
:105280000068C0F340600028F1D1D4E90701084369
:10529000616A40EA81110122A06AC2EB500041EA32
:1052A00000412C20005D41EA00600C49091F0860A4
:1052B00001200B490866FEF769F9054606E0FEF78E
:1052C00065F9401B022801D903200DE60348083880
:1052D0000068C0F340600028F1D049E0083802407F
:1052E00000004742800E47420070004000202149E4
:1052F0000866FEF74BF9054606E0FEF747F9401B46
:10530000022801D90320EFE51B480068C0F3406084
:105310000028F2D12CE0A069012800D1E4E516486C
:10532000001D0668A069012820D006F48001E0690C
:1053300081421BD106F03F01206A814216D147F617
:10534000C0703040616AB0EB811F0FD106F440316C
:105350000122A06AC2EB5000B1EB004F06D106F06B
:1053600070612C20005DB1EB006F01D00120BBE526
:105370000020B9E5000047420038024010B504465D
:105380000CB9012010BD606A38B96068B0F5827F41
:1053900000D105E00021E16102E0002121616161AD
:1053A0000021A16294F8510028B9002084F850002F
:1053B000204600F047F8022084F851002068006879
:1053C00020F0400021680860A08800F482702189E4
:1053D00001F404410843A18901F400610843217CE0
:1053E00001F002010843217D01F001010843218BF6
:1053F00001F400710843217F01F0380108432021A6
:10540000095D01F080010843218D01F4005108433A
:10541000216808600421A06901EA104094F8241072
:1054200001F010010843216848602068C06920F439
:1054300000602168C86100206065012084F8510087
:1054400000209FE710B586B00446142101A8FBF7A1
:1054500079F94B49206888427ED100BF0020009036
:105460004848006840F48050464908600846006893
:1054700000F48050009000BF00BF00BF00200090EB
:1054800040481438006840F002003E491439086072
:105490000846006800F00200009000BF00BF00BF97
:1054A000002000900846006840F0010008600846AF
:1054B000006800F00100009000BF00BF18200190BC
:1054C0000220029001200390032004900520059003
:1054D00001A92D48FDF750FF802001900220029085
:1054E00001200390032004900520059001A927487E
:1054F000FDF742FF2648274908604FF0C06048602A
:10550000002124488160C1604FF480610161002165
:1055100041618161C1614FF440310162002141620A
:10552000FDF7AAFD08B1FCF714F800BF1948E064C4
:10553000846300BF16481830174908604FF0C060F8
:1055400048604021144881600021C1604FF48061AF
:1055500001610021416100E010E08161C1614FF40F
:105560000031016200214162FDF786FD08B1FBF7C1
:10557000F0FF00BF0848A064846300BF06B010BD00
:105580000030014044380240000402400000024064
:105590004064024044070020A40700202DE9FF5F7B
:1055A0000446884691461D460E9E0120029000202A
:1055B000019000BF94F85000012803D1022004B0EC
:1055C000BDE8F09F012084F8500000BFFDF7DEFF2A
:1055D000074694F851B060680390AA46BBF1010FEA
:1055E0000BD00398B0F5827F04D1A06810B9BBF14D
:1055F000040F02D002200190E9E0B8F1000F03D0BF
:10560000B9F1000F00D015B901200190DFE094F846
:105610005100042802D0052084F851000020606564
:10562000C4F83890E587A587C4F83080E586A5865C
:10563000206460642068006800F04000402805D0C5
:105640002068006840F0400021680860E068B0F51C
:10565000006F4DD1606810B1BAF1010F09D1206B14
:1056600000882168C860206B801C2063E08E401E8B
:10567000E08636E02068806800F00200022810D141
:10568000E08E70B1029801280BD1206B0088216850
:10569000C860206B801C2063E08E401EE0860020E6
:1056A00002902068806800F0010068B1E08F58B176
:1056B0002068C068A16B0880A06B801CA063E08F8D
:1056C000401EE08701200290FDF760FFC01BB04242
:1056D00007D3701C28B103200190012084F85100E9
:1056E00075E0E08E0028C5D1E08F0028C2D14DE0E2
:1056F000606810B1BAF1010F09D1206B0078216800
:105700000873206B401C2063E08E401EE08637E06B
:105710002068806800F00200022810D1E08E70B18D
:10572000029801280BD1206B007821680873206B48
:10573000401C2063E08E401EE0860020029020681E
:10574000806800F0010068B1E08F58B12068C0683F
:10575000A16B0870A06B401CA063E08F401EE08727
:1057600001200290FDF712FFC01BB04201D3701C54
:1057700000B92EB903200190012084F8510026E0E1
:10578000E08E0028C4D1E08F0028C1D13A463146CE
:10579000204605F089FF20B101200190202060659E
:1057A00015E0A06850B900BF002000902068C068D4
:1057B000009020688068009000BF00BF606D10B14D
:1057C0000120019002E0012084F8510000BF00BFD9
:1057D000002084F8500000BF0198F0E67047704741
:1057E00030B502460B4600BF92F83C00012801D1BB
:1057F000022030BD012082F83C0000BF022082F868
:105800003D00106844681068816824F070041868CE
:10581000044310684460184D1068A8421BD01068FB
:10582000B0F1804F17D0154D1068A84213D0144D19
:105830001068A8420FD0134D1068A8420BD0124D2B
:105840001068A84207D0114D1068A84203D0104D2F
:105850001068A84205D121F0800158680143106802
:105860008160012082F83D0000BF002082F83C00EA
:1058700000BF00BFBDE70000000001400004004081
:1058800000080040000C00400004014000400140BE
:105890000018004010B504460CB9012010BD94F862
:1058A0003D0028B9002084F83C00204600F026F88E
:1058B000022084F83D00211D206806F0C1F9012076
:1058C00084F8460000BF84F83E0001213F200155C6
:1058D000402001554120015500BF00BF012084F840
:1058E000420043200155442001554520015500BF89
:1058F000012084F83D000020D0E7000038B50446C0
:1059000019492068884218D100BF0020009017482C
:10591000006840F00200154908600846006800F081
:105920000200009000BF00BF002205211D20FEF7ED
:1059300077FA1D20FEF760FA15E00D4920688842CD
:1059400011D100BF002000900848001D006840F4FD
:1059500000300649091D08600846006800F4003060
:10596000009000BF00BF38BD000400404038024036
:1059700000440140014691F83D00012801D001207A
:105980007047022081F83D000868C06840F00100BF
:105990000B68D8601A4B086898421BD00868B0F1B1
:1059A000804F17D0174B0868984213D0164B0868E1
:1059B00098420FD0154B086898420BD0144B0868DA
:1059C000984207D0134B0868984203D0124B0868DE
:1059D00098420CD10868806800F00702062A0CD0B3
:1059E0000868006840F001000B68186005E008686E
:1059F000006840F001000B6818600020C0E700005C
:105A0000000001400004004000080040000C00407D
:105A10000004014000400140001800402DE9F04121
:105A200004460D46002700BF94F83C00012802D12F
:105A30000220BDE8F081012084F83C0000BF022074
:105A400084F83D002068866826F0770626F47F46B5
:105A5000206886602868502833D00CDC202850D07D
:105A600004DC00284BD0102851D149E0302849D01F
:105A700040284CD139E060282DD0702807D0B0F5EF
:105A8000805F03D0B0F5005F41D10DE041E0D5E982
:105A900002136A68206806F047F92068866846F0B5
:105AA00077062068866034E0D5E902136A682068CA
:105AB00006F03AF92068806840F4804021688860E8
:105AC00027E0EA686968206806F01EFA502120681D
:105AD00006F035F91DE0EA686968206806F027FAE3
