:020000040800F2
:10000000A86B0020290300081F58000807410008BA
:100010001D580008A30B00089D7D0008000000008B
:10002000000000000000000000000000690200085D
:10003000B711000800000000C5020008057500089F
:100040004303000843030008430300084303000878
:100050004303000843030008B911000843030008E4
:100060004303000843030008BF11000843030008CE
:100070008D100008430300084303000843030008F1
:100080004303000843030008430300084303000838
:10009000A50B00084303000843030008C51100082E
:1000A0004303000843030008430300084303000818
:1000B000D5750008E17500084303000843030008F4
:1000C00043030008430300084303000843030008F8
:1000D00043030008257D000843030008317D000824
:1000E00043030008430300084303000843030008D8
:1000F00043030008430300084303000843030008C8
:1001000043030008430300084303000843030008B7
:1001100043030008430300084303000843030008A7
:100120004303000899100008A5100008B910000842
:100130004303000843030008430300084303000887
:10014000B10B000843030008430300084303000801
:10015000C5100008D1100008DD100008497D000816
:100160004303000843030008430300084303000857
:100170004303000843030008430300080000000095
:10018000430300084303000800F002F800F05CF8A5
:100190000AA090E8000C82448344AAF10107DA45E2
:1001A00001D100F051F8AFF2090EBAE80F0013F0D8
:1001B000010F18BFFB1A43F00103184760C9000084
:1001C00080C900000A444FF0000C10F8013B13F006
:1001D000070408BF10F8014B1D1108BF10F8015BA0
:1001E000641E05D010F8016B641E01F8016BF9D193
:1001F00013F0080F1EBF10F8014BAD1C0C1B09D1EA
:100200006D1E58BF01F801CBFAD505E014F8016B5B
:1002100001F8016B6D1EF9D59142D6D370470000ED
:100220000023002400250026103A28BF78C1FBD8FF
:10023000520728BF30C148BF0B6070471FB50CF094
:1002400046F91FBD10B510BD00F002FA1146FFF7C8
:10025000F5FF0AF001F800F020FA03B4FFF7F2FF0F
:1002600003BC00F023FA00002C4B19680868B0E8C2
:10027000F04F80F30988BFF36F8F4FF0000080F3D9
:10028000118870470000000008480068006880F38B
:1002900008884FF0000080F3148862B661B6BFF39F
:1002A0004F8FBFF36F8F00DF00BF00BF08ED00E08E
:1002B000DFF80C00016841F470010160704700BF75
:1002C00088ED00E0EFF30980BFF36F8F134B1A68DE
:1002D0001EF0100F08BF20ED108A20E9F04F1060CB
:1002E00009B44FF0500080F31188BFF34F8FBFF374
:1002F0006F8F0BF02FF94FF0000080F3118809BCCD
:1003000019680868B0E8F04F1EF0100F08BFB0EC95
:10031000108A80F30988BFF36F8F70475400002064
:10032000EFF30580704700000948804709480047FF
:10033000FEE7FEE7FEE7FEE7FEE7FEE7FEE7FEE795
:10034000FEE7FEE704480549054A064B70470000F2
:10035000C575000889010008A8650020A86B002069
:10036000A8670020A867002053EA020C00F069800B
:100370002DE9F04B4FF00006002B1FBFB3FA83F5B9
:1003800003FA05F424FA05F65E4012BF1643B2FAEA
:1003900082F502FA05F4C5F120051EBF22FA05FC1C
:1003A00044EA0C04203556EA044C4FEA144418BFC2
:1003B000641C4FF000084FF00009904271EB030CF1
:1003C00039D3002919BFB1FA81F701FA07F6B0FA5B
:1003D00080F700FA07F6C7F120071EBF20FA07FCD6
:1003E00046EA0C062037B6FBF4FCA7EB0507103FE6
:1003F00007F01F0BCBF120060CFA0BFB2CFA06F6CC
:1004000044BFB3460026202FA4BF5E464FF0000B2A
:100410005BEA060C08BF4FF0010B19EB0B09ABFBB5
:10042000027C48EB0608C01B06FB02CC0BFB03CC8E
:1004300071EB0C01C1E70B46024641464846BDE858
:10044000F08B13B54FF000004FF00001AFF30080C8
:10045000BDE81C40704710B5431C02E010F8011BBA
:1004600071B18107FAD14FF0013202C88C1A8C4366
:1004700014EAC211F9D0C01A0A0603D0C01E10BD7A
:10048000C01A10BD0A0401D0801E10BD0902FCD0A4
:10049000401E10BD032A40F2308010F0030C00F023
:1004A000158011F8013BBCF1020F624498BF11F8AE
:1004B00001CB00F8013B38BF11F8013BA2F1040267
:1004C00098BF00F801CB38BF00F8013B11F00303DF
:1004D00000F02580083AC0F0088051F8043B083A43
:1004E00051F804CBA0E80810F5E7121D5CBF51F8E5
:1004F000043B40F8043BAFF30080D20724BF11F85F
:10050000013B11F801CB48BF11F8012B24BF00F8C3
:10051000013B00F801CB48BF00F8012B704710B534
:10052000203AC0F00B80B1E81850203AA0E81850EB
:10053000B1E81850A0E81850BFF4F5AF5FEA027CAC
:1005400024BFB1E81850A0E8185044BF18C918C01B
:10055000BDE810405FEA827C24BF51F8043B40F8BC
:10056000043B08BF7047D20728BF31F8023B48BFA1
:1005700011F8012B28BF20F8023B48BF00F8012BDF
:10058000704702F0FF0343EA032242EA024200F00E
:1005900002B84FF000020429C0F0128010F0030CE2
:1005A00000F01B80CCF1040CBCF1020F18BF00F866
:1005B000012BA8BF20F8022BA1EB0C0100F00DB815
:1005C0005FEAC17C24BF00F8012B00F8012B48BF73
:1005D00000F8012B70474FF0000200B51346944617
:1005E0009646203922BFA0E80C50A0E80C50B1F18B
:1005F0002001BFF4F7AF090728BFA0E80C5048BF9F
:100600000CC05DF804EB890028BF40F8042B08BF3C
:10061000704748BF20F8022B11F0804F18BF00F838
:10062000012B704770477047704710B500F008F80D
:10063000006810BD10B5044600F002F8046010BD5B
:100640000048704748650020004870474865002012
:100650007546FFF7F9FFAE4605006946534620F0A0
:100660000700854618B020B5FFF76CFEBDE82040B6
:100670004FF000064FF000074FF000084FF0000B5E
:1006800021F00701AC46ACE8C009ACE8C009ACE811
:10069000C009ACE8C0098D46704710B50446AFF3F9
:1006A00000802046BDE81040FFF7D7BD0149182063
:1006B000ABBEFEE72600020070470000B7EE000A5E
:1006C00080ED000A9FED040A80ED010A80ED020A28
:1006D00080ED030A7047000000000000D2ED022AFE
:1006E00092ED012AD2ED001A91ED021AD1ED010A24
:1006F00091ED000A04F09CBF70B504462DED048B0B
:1007000010EE100A374DE861374E94ED020A86ED7F
:10071000020A0BF06BFE41EC100B08F019F9B0EE79
:10072000408AF0EE608A60680BF060FE53EC182B94
:100730000BF032FC41EC180BE8690BF057FE41EC72
:10074000100B07F065FDB0EE409AF0EE609A20685D
:100750000BF04CFE53EC192B0BF01EFC53EC182B3A
:100760000BF078F90BF044F93060E8690BF03EFECD
:1007700041EC100B07F04CFDB0EE408AF0EE608AC1
:1007800060680BF033FE53EC182B0BF005FC41ECCA
:10079000180BE8690BF02AFE41EC100B08F0D8F8B2
:1007A000B0EE409AF0EE609A20680BF01FFE53EC1A
:1007B000192B0BF0F1FB53EC182B0BF02DFD0BF06C
:1007C00017F97060A6F10C01304609F045F8BDEC50
:1007D000048B05F13801A6F10C00BDE8704009F06A
:1007E0008FBD00008001002040610020FEEE000A65
:1007F00020EE201AF6EE000A60EE201A12E0F4EE67
:10080000C10AF1EE10FA04D270EE800AC0ED000ABF
:1008100008E0F4EEE10AF1EE10FA03DD70EEC00A32
:10082000C0ED000AD0ED000AF4EEC10AF1EE10FAB4
:10083000E5D3F4EEE10AF1EE10FAE0DC70470000D7
:1008400001221021014801F0D5BD00000000024046
:1008500000221021014801F0CDBD0000000002403F
:100860007047000001221146014801F0C3BD00009D
:100870000004024000220121014801F0BBBD00003C
:100880000004024030B5437804781B021BB22343B6
:1008900000EE103A1B4CB8EEC00AD4ED000A20EE70
:1008A000200A81ED000AC37885781B021BB22B4316
:1008B00000EE103AF8EEC00A94ED000A60EE800AED
:1008C000C1ED010A437904791B021BB2234300EEF8
:1008D000903AF8EEE00A20EE800A81ED020A017AF1
:1008E000C3790904807941EA0321014300EE101A1B
:1008F000DFED050AB8EE400A20EE200A82ED000A7C
:1009000030BD00002002002000401C42704709F06A
:10091000B5BD012009F0B2BD10B5427803781202CE
:1009200012B21A4300EE102A124BB8EEC00AD3EDF1
:10093000010A20EE200A81ED000AC27884781202B2
:1009400012B2224300EE102AF8EEC00A93ED010A1B
:1009500060EE800AC1ED010A42790079120212B2FA
:10096000024300EE902AF8EEE00A20EE800A81EDC4
:10097000020A10BD2002002010B5FFF771FFFFF73B
:10098000C5FF08F035FD08B1802402E008F0A0FCA6
:10099000044608F0FBFE10B144F0400010BD08F022
:1009A00085FE204310BD00002DE9FC4104460D46A4
:1009B0001646002000900190FFF74AFF922000F0B9
:1009C000BFF806226946122000F09CF8FFF738FFB6
:1009D0009DF801009DF80010000200B2084300EEEF
:1009E000100A474FB8EEC00AD7ED000A20EE200AE1
:1009F00085ED000A9DF803009DF80210000200B288
:100A0000084300EE100AF8EEC00A97ED000A60EE07
:100A1000800AC5ED010A9DF805009DF8041000024A
:100A200000B2084300EE900AF8EEE00A20EE800AD9
:100A300085ED020AFFF71EFF08226946002000F03C
:100A400061F8FFF70FFF9DF800000F2830D19DF8E7
:100A500003009DF80210000200B2084300EE100AE5
:100A6000D7ED010AB8EEC00A20EE200A84ED000A94
:100A70009DF805009DF80410000200B2084300EE46
:100A8000100AF8EEC00A97ED010A60EE800AC4ED84
:100A9000010A9DF807009DF80610000200B2084305
:100AA00000EE900AF8EEE00A20EE800A84ED020AD9
:100AB000FFF7CEFEA22000F043F802226946222072
:100AC00000F020F8FFF7BCFE9DF800009DF8011033
:100AD000C00040EA5110B0F5806F02DBA0F5006065
:100AE00000B200EE100AB4EE001AF8EEC00AB3EE3F
:100AF000070A00EE810A86ED000ABDE8FC810000CD
:100B00002002002070B50D46144640F0800000F031
:100B100017F806E0552000F013F805F8010B641EE5
:100B2000E4B2002CF6D170BD10B50C4640F0800048
:100B300000F006F8552000F003F8207010BD00000A
:100B400001B582B04FF47A700090012301AA02A986
:100B5000024802F015FC9DF804000EBD280D00208F
:100B600002784078D20042EA5010B0F5806F02DB84
:100B7000A0F5006000B200EE100AB4EE001AF8EE24
:100B8000C00AB3EE070A00EE810A81ED000A704741
:100B900010B50C46FFF7D4FF2046BDE81040FFF724
:100BA000CFBFFEE7014800F005BE0000840C002026
:100BB000014800F0FFBD0000AC0C00202DE9F04F13
:100BC0002DED068B81B0002633469FED3C8A9FEDCC
:100BD0003C0A3C4AB0EE482AF0EE481AB0EE481AF9
:100BE000F0EE400A314602F55270009609F0DAFD47
:100BF0009FED360A0023B0EE482AF0EE481A9FED2A
:100C0000321AF0EE400A324A19463248009609F08C
:100C1000C9FD00242B4FDFF8B890DFF8BC809FEDB2
:100C20002F9ADFED2F9A9FED2FAADFED2F8A18372D
:100C30004FF4005A09F10C0904EB041000EB4000DA
:100C4000651C47F8205004EB440101EBC40107EB9D
:100C5000800B08EBC101CBF804101A4A0BF1080015
:100C60005346B0EE482AF0EE481AB0EE491AF0EEBC
:100C7000480AB0EE480A0C320021009609F092FDB5
:100C800004EB4400B0EE680A09EB800200230BF18C
:100C90006800B0EE692AF0EE481AB0EE4A1AF0EE9B
:100CA000400A1946009609F07DFDECB2042CC3D32E
:100CB00001B0BDEC068BBDE8F08F00000000000025
:100CC00000004843205D00200000C84200401C4650
:100CD000C0010020C8600020D0110020E6B1617F73
:100CE000CDCCCC3D0000C84300008046F0B52DEDD2
:100CF000048B81B004F0BEF8B24D85ED020A04F019
:100D0000C1F8A88004F0C4F8E8809FEDAF9A18B944
:100D100085ED029A3C20E88028789FEDAC8B08B1E5
:100D2000022835D1AB484068C06C0BF05FFB41EC4A
:100D3000100B85ED0C0B9FEDA81B51EC100B53EC29
:100D4000112B0BF0EDF80ED295ED0C0B53EC182B8C
:100D500051EC100B0AF07EFE53EC182B0AF07AFED1
:100D6000C5E90C0114E095ED0C0B53EC182B51EC7C
:100D7000100B0BF00FFA0BD29FED990B53EC102BCD
:100D800095ED0C0B51EC100B0AF064FEC5E90C015B
:100D900095ED0C0B51EC100B0AF02AFE00EE100A38
:100DA0009148FFF7A9FC914C864838306268018869
:100DB0005180D4F8D02041885180D4F89C2181887A
:100DC0005180D4F86812C0884880894E61683088A4
:100DD0000880D4F8D010B6F858000880D4F89C11D8
:100DE000B6F8B0000880D4F86812B6F80801088098
:100DF0006068B0F90210B0F9000000EE101AF8EEC9
:100E0000C00A00EE100A04F16800B8EEC00A09F04A
:100E100083FBD4F8D000B0F90210B0F9000000EE66
:100E2000101AF8EEC00A00EE100A04F59A70B8EE37
:100E3000C00A09F071FBD4F89C01B0F90210B0F9B6
:100E4000000000EE101AF8EEC00A00EE100A04F5D9
:100E50000070B8EEC00A09F05FFBD4F86802B0F980
:100E60000210B0F9000000EE101AF8EEC00A00EE11
:100E7000100A04F53370B8EEC00A09F04DFBA878EB
:100E80000027411EC72943D2B6F960010BF01DF8B7
:100E90009FED581B53EC112B0BF07EF89FED571B69
:100EA00053EC112B0AF08AFE9FED561B53EC112BCD
:100EB0000BF072F89FED551B53EC112B0AF07EFEE0
:100EC0009FED541B53EC112B0AF078FE41EC180BEC
:100ED00028690BF08BFA53EC182B0AF0BBFD0AF0D3
:100EE00087FD00EE100A85ED040AD5ED030A04F52E
:100EF0004C7009F011FB04F54C7090ED090ADFED20
:100F0000470A30EE200ABDEEC00A85ED060A04E06D
:100F1000F0B300F0B1F84248A86195ED040AD5EDB0
:100F2000030AB4EEE00AF1EE10FA04DB85ED049A50
:100F3000A878401EA870B6F96001D5ED060A00EE4B
:100F4000100A2948F8EEE00AB8EEC00A603809F045
:100F5000E3FA94EDBC0ABDEEC00A10EE100A00B22E
:100F6000009094ED890ABDEEC00A10EE100A94EDCF
:100F7000560A03B2BDEEC00A10EE100A94ED230A21
:100F800002B2BDEEC00A10EE100A01B2254800E020
:100F900014E009F089FF144800976038002390EDB1
:100FA000090A1A46BDEEC00A10EE100A01B21D4829
:100FB00009F0AAFF01B0BDEC048BF0BD00F05CF8B5
:100FC000AF61AAE780010020000000007FBDC2825F
:100FD000FB210940C06100207FBDC282FB2109C006
:100FE0007FBDC282FB2119C028610020385D00202E
:100FF000D0110020FCA9F1D24D62603F000000003A
:10100000000042400000000000804140000000005D
:10101000008047400000000000004E4000803B453B
:1010200018FCFFFF840C002008B5FFF7C7FD06F091
:101030001DFA094C0AF0FAFB0090607838B10128DB
:1010400005D100F00BF8FFF751FE06F029FA022156
:1010500068460AF087F9EDE7800100200448054959
:1010600082680A60C2684A60006988607047000050
:10107000901900202861002002480349C079887037
:10108000704700009019002080010020014800F006
:10109000B5BE000068100020014800F0AFBE00009F
:1010A000C810002010B503F087FCBDE810400148CF
:1010B00000F0A4BE800D0020014800F09FBE00009B
:1010C000E00D0020014800F099BE0000081000204B
:1010D000014800F093BE000028110020014800F0F4
:1010E0008DBE0000A80F00200168CAB2103A182374
:1010F000B2FBF3F2064B9B5CC3656FF30901032A55
:1011000002D9091D816500E08165806D704700008E
:1011100054C5000810B5014600208A6A8B694FF05B
:10112000C074002B0ED0B3F5005F1AD062B3012A51
:101130002AD0022A28D0032A03D1C96AC90100D5BE
:10114000012010BD1AB1012A06D0022AF9D1C96ABC
:10115000C901F6D5012010BDC96AA142FBD1012009
:1011600010BD52B1012A0AD0022A06D0032AF7D1B3
:10117000C96AA142F4D1012010BD012010BDC96A85
:10118000C901FBD5012010BD012010BD30B5046898
:10119000256825F480252560046863608368402BFA
:1011A00004D0036899600068C26030BD03689A602B
:1011B0000068C16030BD7047012001F01FB81020E9
:1011C00001F01CB8202001F019B872B6FEE700004B
:1011D00030B52DED048B81B04FF4B47500242B464F
:1011E0009FED688AB0EE482AF0EE481ADFED668A75
:1011F000B0EE681A9FED659AF0EE490ADFED649A49
:10120000644A2146B0EE690A02F5F670009409F0CE
:10121000C9FA604A2B460C32B0EE482AF0EE481A62
:10122000B0EE681AF1EE040AB0EE680A002102F589
:101230001070009409F0B6FA564A2B461832B0EEF8
:10124000482AF0EE481AB0EE681AF1EE040AB0EE41
:10125000680A002102F55570009409F0A3FA4D4A7E
:101260002B462432B0EE482AF0EE481AB0EE681A47
:10127000F0EE490AB0EE690A002102F522700094EE
:1012800009F090FA434A2B463032B0EE482AF0EE8D
:10129000481AB0EE681AF1EE040AB0EE680A0021AE
:1012A00002F53770009409F07DFA3A4D40F20710CC
:1012B00054352860384868600023B0EE482AF0EEC4
:1012C000481A9FED361AF3EE0E0AB3EE0E0A344AB0
:1012D000194605F10800009409F064FA9FED310AFF
:1012E00085ED150A9FED300A85ED160A2C4A00237C
:1012F000B0EE482AF0EE481AB0EE081AF2EE040AF0
:10130000B2EE040A0C32194605F16800009409F0A7
:1013100049FA05F1CC0040F2091101601E4958312B
:101320004160DFED239AA0F1E4024FF400539FEDFA
:101330001F2AF0EE481AB0EE691AF0EE680AB0EE15
:10134000490A00210830009409F02CFA0023A5F185
:101350000C029FED182AF0EE481AB0EE691ADFED84
:10136000160A9FED160A194602F5A070009409F0BE
:1013700019FA05F55E7080ED008A01B0BDEC048BB2
:1013800030BD000000000000000048430000C843DA
:10139000000048446C610020B0180020930A063F0A
:1013A00008020020DC0F4940DC0F49C06666663F3A
:1013B000E6B1617FCDCCCC3D00401C460060EA46E2
:1013C00010B503461046002B01D0084C0AE04FF63A
:1013D000FF7010BD13F8012B4240D2B234F8122036
:1013E00082EA1020491E4A1CF4D110BD74C60008C0
:1013F00010B5054C03E010F8013B5340E25C491E78
:101400004B1CF8D1104610BD74C5000808B5FFF795
:10141000DFFE0F4E02270F4C0F4D4FF00D080AF064
:1014200005FA0090307870B101280CD1207A02289A
:1014300002D0032802D006E02F7004E0607A012871
:1014400001D185F800800221684609F08BFFE6E7AC
:1014500081010020B6190020FC01002090F8202016
:10146000012A07D0022A05D0416A41F48021416255
:1014700001207047006842690A43426100207047BA
:10148000F0B590F820500468A468012D07D0022D13
:1014900005D0416A41F4802141620120F0BD04F091
:1014A000806504F00066354301D1E50053D5C4F3EF
:1014B00001640125A5401D608B684FF4C0759BB188
:1014C000CE6805EB041733434E6843EAC60306684B
:1014D000F3514FF4C273076803EB04130E69FE5017
:1014E000097D012909D00DE00E88CB6805EB0417B2
:1014F00043EA46530668F351EBE70168CE5846F4D9
:101500008076CE501179D379567941EA0361937987
:101510001B0443EA062319434FF4C676036806EB1F
:10152000041699511178D37841EA0361937852787F
:101530001B0443EA022211434FF4C473026803EB15
:101540000413D150006805EB0411425842F0010227
:1015500042500020F0BD416A41F400114162012077
:10156000F0BD000010B590F82020012A07D0022A13
:1015700005D0416A41F480214162012010BD3C4800
:1015800000F50070026842F001020260026822F475
:101590007C52026002684B6A42EA032202600A7DC2
:1015A00002F01F0301229A40C3699343C361A0F56F
:1015B0000070CB69B3B9D0F80C329343C0F80C3249
:1015C0008C894B6864F31F434C6900EBC404C4F876
:1015D00040320C890B6864F31F434C6900EBC40470
:1015E000C4F84432CB69012B16D1D0F80C32134326
:1015F000C0F80C320C884B6864F31F434C6900EB55
:10160000C404C4F840320C89CB6864F31F434C69AE
:1016100000EBC404C4F844328B697BB1D0F80432C7
:101620001343C0F804320B6973B1D0F8143213437A
:10163000C0F81432096A01290CD010E0D0F8043245
:101640009343C0F80432EEE7D0F814329343C0F865
:101650001432EFE7D0F81C121143C0F81C12D0F876
:10166000001221F00101C0F80012002010BD00009E
:1016700000640040704770B590F82040012C07D0FE
:10168000022C05D0416A41F480214162012070BDE5
:1016900021B104682469A4072AD003E00468E4683F
:1016A000A4071FD04FF4D874056804EB01142D591A
:1016B00005F0040595600DB305682D59ED085560DA
:1016C00005682C5904F00204D4604FF4DA740568FC
:1016D00004EB01142E5906F00F06082E13D308252B
:1016E000156114E0416A41F400114162012070BDAE
:1016F000416A41F400114162012070BD05682D5915
:101700006D0D1560DCE72D5905F00F0515610568B5
:101710002D59C5F30725956105682C59240C546192
:101720004FF4DC72046802EB0112A4581C700468C8
:10173000A458240A5C700468A458240C9C700468A3
:10174000A258120EDA704FF4DE72046802EB011236
:10175000A4581C710468A458240A5C710468A45835
:10176000240C9C710468A258120EDA7131B1006821
:10177000016941F020010161002070BD0068C1686D
:1017800041F02001C160F7E70246002092F82010E6
:10179000012901D002290CD111688A68520100D5B3
:1017A00001208A68120100D5401C8968C90000D553
:1017B000401C70472DE9F05F054600242868466903
:1017C000D0F804908768D0F80CA0D0F810B0D0F80A
:1017D0001880F10748D0F90714D001218160B807BB
:1017E00003D5284600F0AAFA0CE0780702D54FF49A
:1017F000006407E0380702D54FF4805402E0284621
:1018000000F09BFAF80516D529684FF480708860BF
:10181000B80503D5284600F093FA0CE0780502D508
:1018200044F4005407E0380502D544F4804402E053
:10183000284600F084FAF80316D529684FF4803062
:101840008860B80303D5284600F07CFA0CE07803E2
:1018500002D544F4004407E0380302D544F4803450
:1018600002E0284600F06DFA300707D55FEACA604B
:1018700004D544F4007429681020C86070074FF044
:10188000080707D55FEA0A7004D52868C7602846AC
:1018900000F0B8F9B00706D52868C068800702D004
:1018A000284600F0B1F9700607D55FEACB6004D591
:1018B00044F48064296810200861B00607D55FEA07
:1018C0000B7004D528680761284600F007FAF00677
:1018D00006D528680069800702D0284600F0FFF985
:1018E000B00308D55FEAC96005D5296810204860B3
:1018F000284600F0F5F9F00307D55FEA097004D532
:1019000028684760284600F01EFA300446D55FEA92
:10191000497040D5F00504D55FEAC87001D044F0A5
:101920000104B00504D55FEA887001D544F00204D3
:10193000700504D55FEA487001D544F00404300511
:1019400029D518F0700F26D008F07000402815D067
:1019500006DC102809D020280AD0302816D10AE049
:1019600050280ED0602811D10EE044F008040DE09C
:1019700044F010040AE044F0200407E044F040047E
:1019800004E044F0800401E044F480742868816934
:1019900021F070018161296804204860002C05D085
:1019A000686A204368622846FFF764FEBDE8F09F3E
:1019B00070B50446002C03D094F8200010B104E068
:1019C000012070BD204600F09DF82068016841F0BC
:1019D0000101016000F016FD054605260CE000F04F
:1019E00011FD401B0A2807D9606A40F4003060628C
:1019F00084F82060012070BD20684068C007EED0E8
:101A00002068016821F00201016000F0FBFC05463E
:101A10000CE000F0F7FC401B0A2807D9606A40F48C
:101A20000030606284F82060012070BD206840684A
:101A30008007EED4207E01283FD02068016821F085
:101A400080010160607E01283DD02068016821F09E
:101A500040010160A07E01283BD02068016821F090
:101A600020010160E07E012839D02068016841F042
:101A700010010160207F012837D02068016821F023
:101A800008010160607F012835D02068016821F0DD
:101A900004010160D4E902010843D4E904121143AE
:101AA00008436168491E08432168C86100206062DC
:101AB000012084F82000002070BD2068016841F0FA
:101AC00080010160BEE72068016841F040010160CB
:101AD000C0E72068016841F020010160C2E720688A
:101AE000016821F010010160C4E72068016841F03D
:101AF00008010160C6E72068016841F00401016047
:101B0000C8E700002DE9F04186B00446142101A881
:101B1000FEF761FD364B374ADFF8D0801868216840
:101B2000344C03260227401C103200254FF0090CCC
:101B3000414527D11860012807D1106840F0007096
:101B40001060106800F000700090206840F00800FD
:101B50002060206800F0080000900196029703952D
:101B60000496CDF814C001A9234800F053FB0022CD
:101B70000521142000F0EAFF142000F0D9FF06B080
:101B8000BDE8F081DFF874804145F8D1116841F07B
:101B900080611160116801F0806100911860012876
:101BA00007D1106840F000701060106800F00070FD
:101BB0000090206840F002002060206800F00200E1
:101BC000009060200190029703950496CDF814C010
:101BD00001A90B4800F01EFB00220521402000F067
:101BE000B5FF402000F0A4FFC9E7000000640040FA
:101BF0001400002030380240000C02400068004011
:101C0000000402407047000010B58CB0044601ABE0
:101C100005AA00212046FFF72EFD0599B1F5017FA9
:101C200019D014DC40F20510A1F2051281423BD01C
:101C300006DC07292DD0092930D0C2293DD139E051
:101C4000FC2A08D0FD2A06D0FE2A36D103E0A1F2F4
:101C50000521062931D80598401EC1B21A480170E5
:101C60001A4884420AD101EB410000EBC100184937
:101C700001EBC00001A908F0BFF81EE001EB410034
:101C800000EBC100134901EBC00001A908F0B4F852
:101C900013E0114901A807F0CFFF0EE00E4901A89B
:101CA000583107F0C9FF08E00B4801A9E03007F000
:101CB000FBFF02E001A805F0E1FB2068416941F06B
:101CC000020141610CB010BD28000020840C0020EE
:101CD000D011002098150020B018002070477047E0
:101CE000704770B5044694F82000012805D0606A5A
:101CF00040F400206062012070BD022084F82000C2
:101D00002068016821F00101016000F07BFB0546BD
:101D10000DE000F077FB401B0A2808D9606A40F408
:101D200000306062052084F82000012070BD20682A
:101D30004068C007EDD1606270BD70477047704762
:101D400070477047704770472DE9F0410446A76D12
:101D500000F058FB054694F835000026022806D00E
:101D60008020606584F834600120BDE8F08120683F
:101D7000016821F0160101602068416921F08001AD
:101D80004161206C08B9A06C20B12068016821F085
:101D9000080101602068016821F0010101600BE089
:101DA00000F030FB401B052806D920203434206287
:101DB000032060702670D8E720680068C007EFD164
:101DC00034343F2094F828108840B86001206070B7
:101DD00026700020C9E790F83510022903D0802131
:101DE000416501207047052180F8351000680168C1
:101DF00021F0010101600020704700002DE9F84347
:101E000004464FF00009CDF800906F484FF416518A
:101E10000068B0FBF1F7A56D2E6894F85C0008220D
:101E200002FA00F1314210D02068016849070CD550
:101E3000016821F00401016094F85C0002FA00F1ED
:101E4000A960606D40F00100606594F85C104FF08F
:101E5000010808FA01F0304208D0216849690906F2
:101E600004D5A860606D40F00200606594F85C10D5
:101E700004208840304208D021680968890704D5C9
:101E8000A860606D40F00400606594F85C1010205C
:101E90008840304220D02168096809071CD5A86015
:101EA0002068016849030CD50068000304D4216C44
:101EB00091B1204688470FE0A16C69B12046884760
:101EC0000AE00168C90503D4016821F00801016036
:101ED000216C09B12046884794F85C102020884086
:101EE00030424CD021680968C90648D5A86094F8EA
:101EF000350005280BD020680168490330D50068FB
:101F0000000328D4616C51B32046884737E020682D
:101F1000016821F0160101602068416921F080010B
:101F20004161206C08B9A06C20B12068016821F0E3
:101F30000801016094F85C103F208840A86084F894
:101F4000358084F83490216D00293BD001B02046C3
:101F5000BDE8F0430847E16B09B1204688470EE031
:101F60000168C90507D4016821F01001016084F8F7
:101F7000358084F83490E16B09B120468847606D64
:101F800000281FD0606DC00714D0052084F83500EC
:101F90002068016821F0010101600098401C009058
:101FA000B84203D820680068C007F6D184F83580AD
:101FB00084F83490E16C002904D001B02046BDE8DB
:101FC000F0430847BDE8F883240000202DE9F041E4
:101FD000044600F017FA05465CB1022084F835008B
:101FE000002684F834602068016821F00101016056
:101FF0000DE00120BDE8F08100F004FA401B052847
:1020000005D920206065032084F83500F2E72068B8
:102010000068C007F0D121680A6820480240D4E96E
:1020200001031843D4E903352B431843636918436C
:10203000A3691843E3691843236A18431043626A8B
:10204000042A03D1D4E90B231A4310430860206803
:10205000406920F00700656A2946054301270429E5
:102060000DD1A06A0543E06A48B12046FFF752F857
:1020700028B14020606584F835700120BAE72068F7
:1020800045612046FFF730F894F85C203F219140ED
:102090008160666584F835700020ABE73F8010F002
:1020A00070B50446002594F8340001280CD00120B6
:1020B00084F8340094F835600020012E06D084F8AE
:1020C00034000225284670BD022070BD022684F827
:1020D000356060652046FFF759F82068016841F0D7
:1020E00001010160EEE72DE9F04104460025A66DEF
:1020F00094F8340001280DD0012084F8340094F8BD
:1021000035700020012F07D084F8340002252846BE
:10211000BDE8F0810220FBE7022784F83570606596
:102120002046FFF733F894F85C103F208840B060F9
:102130002068016841F016010160206C20B1206820
:10214000016841F0080101602068016841F0010167
:102150000160DCE710B5274C10280AD0202817D0E2
:10216000082820D0012830D0022801D10120E071B8
:1021700010BD607840F001006070A07840F0010070
:10218000A07020790028F3D0BDE8104007F0EEBE23
:10219000207840F00100207020790028E8D0BDE8C8
:1021A000104007F0E3BEE07840F00100E070E07816
:1021B00010F00100E070DBD0E07820F00100E0706A
:1021C000E07840F00200E07010BD09F021FB01282A
:1021D000FAD00849206A1C3109F012F9E069002898
:1021E000F2D005494FF080500860BFF34F8FBFF326
:1021F0006F8F10BDBC00002004ED00E010B5044955
:102200000A68024202D00860FFF7A4FF10BD000078
:10221000143C01402DE9F84F0022DFF89C914FF06B
:10222000010803274FF00F0C09F1040AA9F1040B70
:1022300008FA02F50B682B40AB426ED10C7904F022
:102240000304012C01D0022C15D18668540007FA32
:1022500004FE26EA0E06D1F80CE00EFA04FE4EEA61
:10226000060EC0F808E04468AC430D79C5F30015CC
:102270009540254345600C79E443A40708D0C56820
:10228000540007FA04F6B5438E68A6402E43C66094
:102290000C7904F00304022C11D1D40800EB84065D
:1022A000356A5407E40E0CFA04FE25EA0E05D1F84F
:1022B00010E00EFA04FE4EEA050EC6F820E00568AE
:1022C000540007FA04F6B5430E7906F00306A6405B
:1022D0002E4306604C6814F4403F67D0374C2568A5
:1022E00045F480452560246804F480440094344C0F
:1022F00022F003052E19D6F8085894074FEA147EE9
:102300000CFA0EF4A5432F4CA04201D1002424E086
:102310002D4CA04202D101241FE047E02B4CA042EB
:1023200001D1022419E02A4CA04201D1032414E077
:10233000284CA04201D104240FE0274CA04201D137
:1023400005240AE0254CA04201D1062405E0244CD6
:10235000A04201D1072400E0082404FA0EF42C4323
:10236000C6F80848D9F800409C434D68ED0200D5F6
:102370001C43C9F80040DAF800409C434D68AD02A8
:1023800000D51C43CAF80040DBF800409C434D6870
:10239000AD0300D51C43CBF80040074D083D2C6829
:1023A0009C434E68F60300D51C432C60521C102A37
:1023B000FFF43EAFBDE8F88F083C014044380240CE
:1023C00000300140000002400004024000080240CA
:1023D000000C0240001002400014024000180240AD
:1023E000001C0240426921EA02030A4043EA02411A
:1023F00081617047002A01D08161704709048161C1
:1024000070470000014880687047000018000020F5
:1024100070B50446002C04D094F83D00002510B19E
:1024200006E0012070BD84F83C50204600F0ACFA74
:10243000242084F83D002068016821F0010101603A
:102440002068016841F4004101602068016821F4BE
:102450000041016000F076FC4F4B6168994203D85F
:102460004E49884203D304E04D49884201D20120FD
:1024700070BD4C49B0FBF1F12268566826F03F066A
:102480000E43566062689A4201D8491C07E04FF437
:10249000967251434FF47A72B1FBF2F1491C2268F3
:1024A000166A26F03F06314311626168994210D8DE
:1024B0004900401EB0FBF1F2521CC2F30B02042A89
:1024C00001D2042022E0B0FBF1F0401CC0F30B006D
:1024D0001CE0A268F2B301EBC10303EB0116431E3B
:1024E000B3FBF6F35B1C43F480431B0549D092B366
:1024F00001EBC10202EB0111401EB0FBF1F0401CE8
:10250000C0F30B0040F4804040F400402168CA69E9
:102510004CF6FF739A431043C861D4E90710014396
:102520002068026822F0C00211430160D4E903016F
:1025300001432068826848F2FF339A431143816067
:10254000D4E9051001432068C26822F0FF0211435C
:10255000C16001E00EE016E02068016841F0010171
:1025600001602564202084F83D00256384F83E50F6
:10257000002070BD01EB4106431EB3FBF6F35B1C6C
:10258000B3E70120C2E701EB4101401EB0FBF1F0CF
:10259000401CC0F30B00B7E7A086010080841E003A
:1025A00000093D0040420F002DE9FF4F83B0044673
:1025B000DDE911988A469346109FFFF723FF0546F1
:1025C00094F83D00202803D0022007B0BDE8F08F2A
:1025D0001923012298492046009501F0DBFE08B13D
:1025E0000220F2E794F83C00012807D0012084F88B
:1025F0003C0020680168C90702D005E00220E4E73A
:10260000016841F0010101602068016821F4006166
:102610000160222084F83D00402084F83E0000261E
:1026200026646762A4F82A90608D20858348E06262
:10263000CDE900855A4651462046069B01F07CFDB7
:1026400008B10120C1E7208D48B1012810D002282F
:102650001CD02068416980690290794FE1E02068D0
:10266000416981690291016841F400710160F4E7F8
:102670002068016821F480610160206841698169F6
:102680000291016841F400710160E6E72068016889
:1026900021F4806101602068016841F400610160FB
:1026A0002068416980690290D7E703287ED8012815
:1026B0000BD002281FD04346002239462046009501
:1026C00001F068FEF0B301207FE72A46414620462C
:1026D00001F01AFF08B1012077E720680069616AFC
:1026E0000870606A401C6062208D401E2085608DED
:1026F000401E608595E043460022394620460095FD
:1027000001F048FE08B101205FE72068016841F44C
:102710000071016020680069616A0870606A401C8D
:102720006062218D491E2185618D491E6185216868
:1027300009690170606A401C6062208D401E20851E
:10274000608D00E002E0401E60856AE0206801685C
:1027500021F48061016020680069616A0870606A24
:10276000401C6062208D401E2085608D401E60856B
:102770004346002239462046009501F00BFE08B181
:10278000012022E72068016841F40071016020689F
:102790000069616A0870606A401C6062218D491E90
:1027A0002185618D491E6185216800E00BE0096982
:1027B0000170606A401C6062208D401E2085608D23
:1027C000401E60852DE02A464146204601F09CFED1
:1027D00008B10120F9E620680069616A0870606A42
:1027E000401C6062208D401E81B22185608D401E9C
:1027F000608520684269D243520712D4032903D16D
:10280000016821F48061016020680069616A0870D4
:10281000606A401C6062208D401E2085608D401ED5
:102820006085208D00287FF440AF20203C3460700C
:10283000A67026700020C8E6020010000000FFFF0E
:10284000040001002DE9FF4F83B00446DDE9119833
:102850008A469346109DFFF7D5FD064694F83D0045
:10286000202803D0022007B0BDE8F08F19230122F1
:1028700043492046009601F08DFD08B10220F2E7A1
:1028800094F83C00012807D0012084F83C0020681F
:102890000168C90702D005E00220E4E7016841F0C1
:1028A000010101602068016821F4006101602120BC
:1028B00084F83D00402084F83E00002727646562CC
:1028C000A4F82A90608D20852E48E062CDE900862C
:1028D0005A4651462046069B01F0CEFC80B30120AB
:1028E000C1E732464146204601F049FE48B1206C1E
:1028F000042804D12068016841F4007101600120BE
:10290000B1E7606A216800780861656A6D1C6562DC
:10291000208D401E80B22085618D491E618523680F
:102920005969C94349070BD450B128781861606AC6
:10293000401C6062208D401E2085608D401E608599
:10294000208D0028CDD132464146204601F0F6FCCC
:1029500048B1206C042804D12068016841F400715A
:10296000016001207FE71F3454F81F0C016841F417
:10297000007101602020A077E7776777002072E779
:10298000020010000000FFFFF0B587B004461421DC
:1029900002A8FDF720FE1D492068884233D11C485B
:1029A000016841F004010160016801F00401019136
:1029B000016841F001010160006800F00100019030
:1029C0004FF4007002901227039701240494032609
:1029D00005960425069502A90E48FFF71BFC200268
:1029E0000290039704940596069502A90A48FFF7FA
:1029F00011FC07481030016841F4000101600068D3
:102A000000F40000019007B0F0BD0000005C004041
:102A1000303802400008024000000240024881684D
:102A200002781144816070471800002010B50B48EF
:102A3000016841F400710160016841F48061016046
:102A4000016841F480710160032000F09FF80F20BD
:102A500000F006F800F050F8002010BD003C0240E5
:102A600030B587B0054600241F48016841F00101D8
:102A70000160006800F00100009001A902A800F0C8
:102A80003DF90598B0B100F05DF940001749B0FB81
:102A9000F1F1491E16484FF08042026040F2E732E1
:102AA000C260416004618460846100F0AFFD04464F
:102AB0001CB115E000F046F9E8E70D4800F0F8FD1C
:102AC00004466CB91C2000F033F8102D07D2002208
:102AD00029461C2000F03AF80648056000E0012471
:102AE00007B0204630BD00004038024040420F0091
:102AF000881100201C00002082B00C48016841F4BD
:102B000080410160006800F4804001900748001F88
:102B1000016841F080510160006800F08050019030
:102B200000220F21901E02B000F010B8443802407D
:102B3000002809DB00F01F020121914040098000BC
:102B400000F1E020C0F8001170470000F0B40D461D
:102B50000D4B1B68C3F30223C3F10704042C00D9F7
:102B60000424191D072901D2002300E0DB1E0126E1
:102B700006FA04F1491E294099409E40761E1640EF
:102B80003143F0BC05F074B90CED00E000F0070132
:102B9000054A10684FF6FF03184040EA0120034938
:102BA00008431060704700000CED00E00000FA05DB
:102BB0002DE9F04704460D46002C13D0DFF828918C
:102BC000D9F80000EFB200F00700A8420CD289F853
:102BD0000070D9F8000000F00700A84204D00120DE
:102BE000BDE8F0870120FBE72068404E810712D541
:102BF000400703D5306840F4E0503060207800078B
:102C000003D5306840F4604030603068A16820F03F
:102C1000F000084330602078C00731D03349606845
:102C20000839012808D002280BD0032809D00968E8
:102C300089070BD40120D3E70968890306D4012052
:102C4000CEE70968890101D40120C9E7316821F084
:102C5000030101433160FFF7D5FB804641F2883A1A
:102C600007E0FFF7CFFBA0EB0800504501D9032098
:102C7000B6E73068616800F00C00B0EB810FF0D16E
:102C8000D9F8000000F00700A84209D989F80070BF
:102C9000D9F8000000F00700A84201D001209FE70A
:102CA0002078400705D53068E16820F4E0500843FB
:102CB00030602078000706D53068216920F4604034
:102CC00040EAC100306000F05DF83168084AC1F3A5
:102CD0000311515CC8400749086007480068FFF7C6
:102CE000BFFE00207CE70000003C024008380240A4
:102CF0005CC50008240000201C0000200F22026098
:102D00000B4A136803F003034360136803F0F003F6
:102D10008360136803F4E053C360126802F46042F6
:102D2000D20802610348006800F00700086070479D
:102D300008380240003C024001480068704700002B
:102D40002400002000B5FFF7F7FF04490968044A92
:102D5000C1F38221515CC84000BD00000838024028
:102D60006CC5000800B5FFF7E7FF04490968044A8D
:102D7000C1F34231515CC84000BD00000838024038
:102D80006CC5000810B51748006810F00C01164813
:102D900016D0164B042912D0082911D1114C241F2A
:102DA000216801F03F02216849020AD52068C0F37A
:102DB0008810A0FB03010023FDF7D6FA09E01846AE
:102DC00010BD21680023C1F38811A1FB0001FDF7AC
:102DD000CBFA2168C1F30141491C4900B0FBF1F075
:102DE00010BD0000083802400024F400001BB700AA
:102DF0002DE9F84F0446002C13D02078DFF8A0838B
:102E0000C007A8F1040556D008F104000168C1F319
:102E1000810101290CD00068C0F38100022803D091
:102E20000DE00120BDE8F88FD8F80000400206D57B
:102E3000286880033FD5606870BB0120F2E76068B6
:102E4000B0F5803F10D0B0F5A02F12D0286820F444
:102E500080302860286820F4802028606068E0B115
:102E6000FFF7D0FA064614E0286840F48030286066
:102E7000F4E7286840F480202860286840F4803017
:102E80002860EBE7FFF7BEFA801B642801D9032016
:102E9000C8E728688003F5D50DE0FFF7B3FA0646CA
:102EA00006E0FFF7AFFA801B642801D90320B9E7D9
:102EB00028688003F5D42078BA4F80074FF00009C6
:102EC00048D5B748001D016811F00C0F08D0006804
:102ED000C0F38100022813D1D8F8000040020FD4BB
:102EE0002868800704D5E068012801D0012099E70F
:102EF0002868216920F0F80040EAC100286029E034
:102F0000E068B8B101203860FFF77CFA064606E0B9
:102F1000FFF778FA801B022801D9032082E728688E
:102F20008007F5D52868216920F0F80040EAC10043
:102F300028600FE0C7F80090FFF764FA064606E045
:102F4000FFF760FA801B022801D903206AE728688E
:102F50008007F5D42078000729D5DFF844A29248ED
:102F600061690AF1700A89B101210160FFF74AFA2B
:102F7000064606E0FFF746FA801B022801D9032027
:102F800050E7DAF800008007F4D510E0C0F80090B0
:102F9000FFF738FA064606E0FFF734FA801B0228EE
:102FA00001D903203EE7DAF800008007F4D4207846
:102FB000400778D54FF0000A79483C300068C000DF
:102FC0000BD477483C30016841F0805101600068C3
:102FD00000F0805000904FF0010ADFF8D0B1DBF82C
:102FE0000000C00514D4DBF8000040F48070CBF87A
:102FF0000000FFF707FA064606E0FFF703FA801B1A
:10300000022801D903200DE7DBF80000C005F4D544
:10301000634EA0686C3601280FD0052812D03068A6
:1030200020F001003060306820F004003060A068BB
:10303000F8B1FFF7E7F9834617E0306840F0010088
:103040003060F4E7306840F004003060306840F0F1
:1030500001003060EBE7FFF7D5F9A0EB0B0141F27F
:103060008830814201D90320DCE630688007F2D540
:1030700010E0FFF7C7F9834609E0FFF7C3F9A0EBBB
:103080000B0141F28830814201D90320CAE6306841
:103090008007F2D4BAF1010F05D141483C300168F4
:1030A00021F080510160A069C0B33D49091D096844
:1030B0004FF0FF36C1F38101022946D0022805D026
:1030C000C7F86090FFF79EF904463AE0C7F86090B1
:1030D000FFF798F9814607E0FFF794F9A0EB0900A4
:1030E000022801D903209DE628688001F4D4D4E9A0
:1030F00007010843616AA26A890106EB520241EAAC
:103100000241084394F82C1040EA0160C8F800001E
:1031100001203866FFF776F9044607E03DE0FFF747
:1031200071F9001B022801D903207BE62868800181
:10313000F5D532E0FFF766F9001B022801D903201C
:1031400070E628688001F5D427E0012823D0D8F85C
:103150000000E26900F4800191421AD1226A00F075
:103160003F01914215D147F6C071626A0140B1EB4F
:10317000821F0ED1A26A00F4403106EB5202B1EB7D
:10318000024F06D194F82C1000F07060B0EB016F84
:1031900003D0012046E6012044E6002042E600007C
:1031A0000438024000004742800E47420070004051
:1031B00070B50446002C09D0606A002540B1256135
:1031C0006561A56294F8510040B10CE0012070BD2A
:1031D0006068B0F5827FF4D0E561F2E784F8505082
:1031E000204600F045F8022084F85100206801686C
:1031F00021F040010160A088218900F4827001F46F
:1032000004410843A18901F400610843217C01F0D5
:1032100002010843217D01F001010843218B01F4E3
:1032200000710843217F01F03801084394F8201011
:1032300001F080010843218D01F400510843216809
:103240000860A069042101EA104094F8241001F0FC
:1032500010010843216848602068C16921F40061B9
:10326000C1616565012084F85100002070BD000037
:103270002DE9F04387B00546142102A8FDF7ABF90C
:103280003949286888426CD100263848016841F4E1
:1032900080510160006800F4805001903348143878
:1032A000016841F002010160016801F00201019131
:1032B000016841F001010160006800F00100019027
:1032C000182002904FF00208CDF80C804FF0010951
:1032D000CDF81090032405940527069702A92448E9
:1032E000FEF798FF80200290CDF80C80CDF810906A
:1032F0000594069702A91F48FEF78CFF1F4C1E4835
:1033000020604FF0C068C4F80480A660E66007152E
:1033100027616661A661E6614FF440302062666213
:103320002046FEF753FE08B1FDF74FFFEC64A5639E
:103330001148124C183060342060C4F804804020DA
:10334000A060E66027616661A661E661C002206256
:1033500066622046FEF73AFE08B1FDF736FFAC6420
:10336000A56307B0BDE8F083003001404438024057
:10337000000402400000024040640240800D002032
:103380002DE9FF4F81B004460E9E8B4698460125DD
:10339000002794F8500001280ED0AA4684F850A0C7
:1033A000FFF730F8814694F85100616801280DD08C
:1033B000B1F5827F08D103E0022005B0BDE8F08FAF
:1033C000A16809B9042801D00227CFE0BBF1000FA2
:1033D0002DD0039858B35FEA080028D094F8510024
:1033E000042802D0052084F851000020606503996C
:1033F000A163A4F83E80A4F83C80C4F830B0A4F8DF
:103400003680A4F83480206460642068016849062E
:1034100003D4016841F040010160E068B0F5006F3D
:1034200007D06068F0B3B8F1010F49D07EE0012702
:103430009CE0606810B1B8F1010F3AD1206B2168AF
:103440000088C860206B801C2063E08E401EE086F0
:103450002FE02068816889070DD5E18E59B1012DD3
:1034600009D1216B0988C160206B801C2063E08E2C
:10347000401EE086002520688168C9070BD0E18FD7
:1034800049B1C068A16B0880A06B801CA063E08F6D
:10349000401EE0870125FEF7B5FFA0EB0900B04212
:1034A00007D300E00CE0701C03D0032784F851A080
:1034B0005CE0E08E0028CCD1E08F0028C9D13BE051
:1034C000206B216800780873206B401C2063E08E1D
:1034D000401EE0862AE02068816889070DD5E18ECC
:1034E00059B1012D09D1216B09780173206B401C62
:1034F0002063E08E401EE086002520688168C907B1
:103500000BD0E18F49B1C068A16B0870A06B401C63
:10351000A063E08F401EE0870125FEF773FFA0EB5C
:103520000900B04201D3701C10D17EB1E08E00289A
:10353000D1D1E08F0028CED14A463146204603F053
:10354000F9FE38B10127202060650FE0032784F8D9
:1035500051A00BE0A06818B92068C168806800908D
:10356000606D08B1012701E084F851A0002084F8C3
:103570005000384621E770477047000070B590F85A
:103580003C20012A31D0012680F83C60022280F8DC
:103590003D2002685468936824F070050C682C4341
:1035A0005460134C0268A24214D0B2F1804F11D083
:1035B000104CA2420ED0104CA2420BD00F4CA24293
:1035C00008D00F4CA24205D00E4CA24202D00E4CA5
:1035D000A24204D123F080034968194391603C3032
:1035E000467000210170002070BD022070BD0000F7
:1035F000000001400004004000080040000C0040B2
:1036000000040140004001400018004010B504468D
:10361000002C03D094F83D0010B107E0012010BD4C
:10362000002084F83C00204600F016F8022084F8C0
:103630003D00211D206803F0D9FF01203D34607258
:103640006070A070E07020716071A071E0712072F4
:103650002070002010BD000008B5006811498842A4
:1036600012D11148016841F002010160006800F0C8
:1036700002000090002205211D20FFF767FABDE837
:1036800008401D20FFF754BA0849884209D106486E
:10369000001D016841F400310160006800F4003051
:1036A000009008BD00040040403802400044014042
:1036B00090F83D10012901D001207047022180F8C7
:1036C0003D100168CA6842F00102CA6000681449EE
:1036D000884214D0B0F1804F11D0124988420ED0E8
:1036E000114988420BD01149884208D010498842BC
:1036F00005D01049884202D00F49884209D181681B
:1037000001F00701062908D0016841F001010160BC
:1037100003E0016841F001010160002070470000F2
:10372000000001400004004000080040000C004080
:1037300000040140004001400018004070B50446FC
:10374000002594F83C00012817D0012684F83C603D
:10375000022084F83D002068826822F0770222F47B
:103760007F4282600868502838D00DDC202853D072
:1037700005DC90B3102811D14EE0022070BD302836
:103780004AD040280AD13DE0602831D070280CD0C2
:10379000B0F5805F03D0B0F5005F12D001253C3456
:1037A000667000202070284670BDCB68D1E90121E9
:1037B000206803F089FF2068816841F0770181600B
:1037C000EDE7CB68D1E90121206803F07DFF206897
:1037D000816841F480418160E1E71DE0CA68496881
:1037E000206804F053F85021206803F077FFD6E7F3
:1037F000CA684968206804F05AF86021206803F01C
:103800006DFFCCE7CA684968206804F03FF84021A2
:10381000206803F063FFC2E722680146104603F008
:103820005DFFBCE770472DE9F04104462068C5689C
:1038300006694FF00007B10714D5A90712D5F91E84
:1038400001610120207720688069800703D020462D
:10385000FFF7E8FF05E0204600F0ACF8204600F056
:103860003CF92777700717D5680715D521686FF0E1
:1038700004000861022020772068806910F4407FEE
:1038800003D02046FFF7CEFF05E0204600F092F877
:10389000204600F022F92777300716D5280714D5DF
:1038A00021686FF008000861042020772068C06953
:1038B000800703D02046FFF7B5FF05E0204600F063
:1038C00079F8204600F009F92777F00617D5E806C1
:1038D00015D521686FF01000086108202077206856
:1038E000C06910F4407F03D02046FFF79BFF05E03E
:1038F000204600F05FF8204600F0EFF82777F00749
:1039000008D0E80706D021686FF001000861204662
:1039100000F0E4F8300608D5280606D521686FF0D7
:10392000800008612046FFF726FE700608D568066D
:1039300006D521686FF040000861204600F0D5F8F8
:10394000B0060AD5A80608D521686FF020000861E6
:103950002046BDE8F041FFF70FBEBDE8F081000052
:1039600010B586B00446142101A8FCF734FE0E49B8
:103970002068884215D10D48016841F0200101609E
:10398000006800F02000009040200190022002908A
:103990000120039003200490059001A90448FEF73C
:1039A00039FC06B010BD0000004401403038024030
:1039B00000140240704770B504460D46002694F886
:1039C0003C0001280FD0012084F83C006AB1042A91
:1039D0001FD0082A32D00C2A44D00126002084F8B7
:1039E0003C00304670BD022070BD2946206803F0BF
:1039F0007DFE2068816941F008018161206881694C
:103A000021F004018161206881692A691143816183
:103A1000E4E72946206803F09DFE2068816941F4AF
:103A2000006181612068816921F480618161206881
:103A300081692A6941EA02218161CFE7294620682C
:103A400003F0C2FE2068C16941F00801C16120682D
:103A5000C16921F00401C1612068C1692A6911436B
:103A6000C161BBE72946206803F0E6FE2068C16912
:103A700041F40061C1612068C16921F48061C161C4
:103A80002068C1692A6941EA0221C161A6E710B52F
:103A90000446002C03D094F83D0010B107E001204B
:103AA00010BD002084F83C00204600F015F80220EC
:103AB00084F83D00211D206803F098FD01203D346D
:103AC00060726070A070E07020716071A071E07130
:103AD00020722070002010BD704770470068B0F160
:103AE000804F01D1FEF79ABF70477047704710B5FD
:103AF000044620684069C0F3C01094F841102129A1
:103B000011D180B12068143050E8001F21F08001ED
:103B100040E80012002AF5D1A06B08B1FEF714F9B5
:103B2000204603F089FF20684069C0F3801094F8B4
:103B30004210222911D180B12068143050E8001FB2
:103B400021F0400140E80012002AF5D1E06B08B1F5
:103B5000FEF7FAF8204603F03BFF002010BD704747
:103B6000F8B5044622681068D168536900F00F0662
:103B7000002E08D1850606D58D0604D52046BDE861
:103B8000F84003F067BF0025002E66D003F0010661
:103B900001F49077374360D0C20705D0CA0503D53A
:103BA000626C42F001026264420705D5DA0703D075
:103BB000626C42F002026264820705D5DA0703D024
:103BC000626C42F004026264020707D501F0200231
:103BD000324303D0626C42F008026264626C002AD5
:103BE00031D0800604D5880602D5204603F032FF86
:103BF00020684069C0F38010616C090700D438B3B5
:103C0000204603F0E5FE2068406940061CD5206888
:103C1000143050E8001F21F0400140E80012002A53
:103C2000F5D1E06B60B159490165E06BFEF7D3F85F
:103C3000002808D0E06B016D01B0BDE8F0400847F6
:103C40002046FFF78CFFF8BD2046FFF788FFF8BD40
:103C50002046FFF784FF6564F8BD236B012B7DD1FF
:103C6000C3067BD5CB067FD510685068009050699D
:103C70004FF0200340064FF0020644D5E16B086880
:103C8000406880B20028E7D0A28D8242E4D9E08566
:103C9000C869B0F5807F2DD020680C3050E8001F37
:103CA00021F4807140E80012002AF5D12068143018
:103CB00050E8001F21F0010140E80012002AF5D170
:103CC0002068143050E8001F21F0400140E8001245
:103CD000002AF5D184F84230256320680C3050E882
:103CE000001F21F0100140E80012002AF5D1E06B1E
:103CF000FEF72AF86663A08DE18D401A81B2204656
:103D0000FFF7F4FEF8BDA08DE18D401A81B2E08D81
:103D10000028F7D00029F5D020680C3050E8002F9B
:103D200022F4907240E80027002FF5D1206814306B
:103D300050E8002F22F0010240E80027002FF5D1C3
:103D400084F84230256320680C3050E8002F22F0C0
:103D5000100240E80023002BF5D100E004E0666388
:103D60002046FFF7C3FEF8BD020606D50A0604D5B5
:103D70002046BDE8F84003F0A5BF4006F3D548064D
:103D8000F1D52046BDE8F84003F049BED3780008DD
:103D900070B50446002C04D094F84100002510B101
:103DA00006E0012070BD84F84050204600F024F861
:103DB000242084F841002068C16821F40051C160CA
:103DC000204603F0ABFE2068016921F490410161B7
:103DD0002068416921F02A0141612068C16841F4ED
:103DE0000051C1606564202084F8410084F84200DD
:103DF0006563002070BD00002DE9F04F87B00446D8
:103E0000142102A8FCF7E7FBAB48AA4B1438226840
:103E1000A9498715002506154FF002094FF0030A3E
:103E20004FF0070B4FF400389A427DD10A6842F0F8
:103E300010020A60096801F010010191016841F067
:103E400002010160016801F002010191016841F085
:103E500001010160006800F00100019080200290E3
:103E6000CDF80C900495CDF814A0CDF818B002A9A7
:103E70009248FEF7CFF970100290CDF80C9004959F
:103E8000CDF814A0CDF818B002A98D48FEF7C2F9FC
:103E9000DFF834928B48C9F800004FF0006AC9F887
:103EA00004A04020C9F80800C9F80C50C9F81060F7
:103EB000C9F81450C9F81850C9F81C504FF44030D4
:103EC000C9F82000C9F824504846FEF77FF808B129
:103ED000FDF77BF9C4F83890C9F83840DFF8E8916D
:103EE000784809F160093038C9F80000C9F804A021
:103EF000C9F80850C9F80C50C9F81060C9F8145036
:103F0000C9F81850C9F81C70C9F82080C9F82450A5
:103F10004846FEF75BF808B1FDF757F9C4F83C9046
:103F2000C9F83840002200E009E005212520FEF70D
:103F30000DFE2520FEF7FCFD07B0BDE8F08F634BBA
:103F40009A424ED15C49091F0A6842F480220A60F5
:103F5000096801F480210191016841F004010160C8
:103F6000006800F0040001904FF440600290CDF82A
:103F70000C9001200490CDF814A0CDF818B002A93F
:103F80005348FEF747F9DFF84091524809F1C0095C
:103F9000C9F800004FF00060C9F80400C9F80850E3
:103FA000C9F80C50C9F81060C9F81450C9F8185075
:103FB000C9F81C70C9F82080C9F824504846FEF79B
:103FC00005F808B1FDF701F9C4F83C90C9F838408C
:103FD000002205212720FEF7B9FD2720FEF7A8FDC6
:103FE000AAE73D4B9A42A7D10A6842F020020A6034
:103FF000096801F020010191016841F04001016070
:10400000006800F0400001904FF484400290CDF829
:104010000C900495CDF814A00820069002A92F4812
:10402000FEF7F8F82748DFF8B8909038C9F8000094
:104030004FF0206AC9F804A0C9F80850C9F80C501C
:10404000C9F81060C9F81450C9F81850C9F81C70A4
:104050004FF44030C9F82000C9F824504846FDF715
:10406000B5FF08B1FDF7B1F8C4F83C90C9F8384085
:1040700014481B4F183860373860C7F804A0402038
:10408000B860FD603E617D61BD61FD61C7F8208063
:104090007D623846FDF79AFF08B1FDF796F8A763F1
:1040A000BC63002206214720FEF750FD4720FEF7A3
:1040B0003FFD41E700100140443802400004024047
:1040C00000000240B8640240A80F002000480040F1
:1040D000000802402860024000140140001802401D
:1040E000C810002090F84230202B01D002207047E9
:1040F00021B11AB10023036303F09ABD0120704778
:10410000704770477047FEE701684A69D24352051D
:104110000FD46FF480624A61002140F8301F2022E2
:1041200042738173026942F004020261017301204B
:1041300070470020704700002DE9F84F04460B9EA1
:104140000F4690461D462068016841F48061016079
:104150002068016841F48071016000964FF0011AF7
:104160000022514620460A9B00F014F94FF40079D2
:1041700040B120680068C00501D5C4F84090032014
:10418000BDE8F88F216807F0FE000861DFF8E4B0B1
:104190003346594620460A9A00F052F908B10120E8
:1041A000EEE72068416980690090324620460A990E
:1041B00000F0E5F948B1206C042804D120680168BA
:1041C00041F4007101600120DAE7284608F0FF059C
:1041D00001280DD021684FEA182008613246204698
:1041E0000A9900F0CCF968B1206C042803D007E0EC
:1041F0002068056108E02068016841F400710160F1
:104200000120BDE720680561324620460A9900F08A
:10421000B6F948B1206C042804D12068016841F443
:10422000007101600120ABE72068016841F48071F2
:10423000016000960022514620460A9B00F0AAF831
:1042400038B120680068C00501D5C4F8409003204B
:1042500096E72168F8B240F00100086133465946FC
:1042600020460A9A00F0ECF808B1012088E7002007
:1042700086E70000020001002DE9F8430446DDE96D
:1042800008970D46164698462068016841F48071EB
:1042900001604B4600224FF001112046009700F0CC
:1042A00079F848B120680068C00502D54FF4007065
:1042B00020640320BDE8F883216805F0FE00086152
:1042C0003B464A461C49204600F0BAF808B1012096
:1042D000F0E720684169806900903A4649462046E7
:1042E00000F04DF948B1206C042804D12068016821
:1042F00041F4007101600120DCE7F5B2B8F1010F73
:104300000CD02168300A08613A464946204600F040
:1043100036F968B1206C042803D007E020680561F5
:1043200008E02068016841F4007101600120C1E7E4
:10433000206805610020BDE70200010070B5044659
:104340000D4616461FE02046FFF7DEFE08B10120AD
:1043500070BD681C17D0FEF755F8801BA84200D826
:104360008DB920684069C04340070CD5002044F84F
:10437000300F20216173A073216941F02001216178
:104380002073012070BD20684069C0434007DAD423
:10439000002070BD2DE9F0470446DDF820900D4661
:1043A00090461E46C5F307472FE0701C2DD0FEF740
:1043B00029F8A0EB0900B04200D836BB012F17D076
:1043C0002068806925EA00000004000C1BD0002052
:1043D00040451AD1002044F8300F20216173A073AA
:1043E000216941F02001216120730120BDE8F0879F
:1043F0002068406925EA00000004000C01D000207C
:10440000E6E70120E4E70120E2E7012F0BD0206876
:10441000806925EA00000004000C0FD00020404510
:10442000C3D00020E2E72068406925EA00000004CC
:10443000000C01D00020F2E70120F0E70120EEE7B8
:104440002DE9F04704460D46164698464FF0000900
:104450004FF0200AC5F3074743E020684069C04396
:10446000400517D42068016841F40071016021689B
:104470006FF480604861C4F8309084F83DA084F8FF
:104480003E90206C40F00400206484F83C900120B1
:10449000BDE8F087701C24D0FDF7B4FFA0EB080046
:1044A000B04200D8EEB9012F14D02068806925EA07
:1044B00000000004000C14D0C4F8309084F83DA033
:1044C00084F83E90206C40F02000206484F83C90FA
:1044D0000120DDE72068406925EA00000004000CA7
:1044E000EAD1012F08D02068806925EA0000000485
:1044F000000CB2D10020CBE72068406925EA00001B
:104500000004000CF6D0A8E72DE9F04104460D4662
:10451000164600274FF020082AE04069C043C00635
:104520000FD421686FF010004861276384F83D8044
:1045300084F83E70206C206484F83C700120BDE853
:10454000F081FDF75FFF801BA84200D885B9206885
:104550004069C04340060BD544F8307F84F80D8095
:10456000A773206940F02000206127730120E6E74F
:1045700020684169C9434906CFD40020DFE770B500
:1045800004460D4616461FE02046FFF7BDFD08B164
:10459000012070BD681C17D0FDF734FF801BA842B6
:1045A00000D88DB920684069C04300060CD50020B2
:1045B00044F8300F20216173A073216941F020017C
:1045C00021612073012070BD20684069C04300064E
:1045D000DAD4002070BD00001FB50024072005F0CC
:1045E0004DFF02E0642005F049FFFCF7C5F9002803
:1045F000F8D102E0642005F041FF05F0D5FD002868
:10460000F8D1DC4A101DCDE90202A2F11007391DD4
:10461000FCF7CAF93B46A3F14C0207F16C0BA2F17F
:104620000C01A1F10C00CDF800B005F031FCDFED7C
:10463000D20A9FEDD20AD24A002107F1CC0001F044
:104640009FF9A7F14C02A2F10C0101F11800FCF74F
:1046500035F8002005F04EFF07F094F8DFF82093BE
:10466000A9F1B409C9F82000C6491020C86108465C
:10467000FEF79EFD08B1FCF7A8FDC149082280396C
:10468000A1F1080002F0D0FD012089F804009FED9F
:10469000BE0ADFF8E0A20AF1140A8AED050A9FEDCE
:1046A000BB0A8AED060A9FEDBA0A8AED070AAAF14B
:1046B0009408B8480188491C018007F0B7F80190B8
:1046C0004FF0FF352946012006F0F8FC0128F9D10A
:1046D00099F8060008B9641CA4B299F8060038B924
:1046E000B4F5FA7F04D9012089F806004FF42F743D
:1046F00099F80000400722D599F8000020F0040046
:1047000089F800009E4802997F38FCF705F997ED7B
:10471000050ADAED050A30EE600A87ED050A97ED25
:10472000060ADAED060A30EE600A87ED060A97ED12
:10473000070ADAED070A30EE600A87ED070A99F8F2
:10474000010040070CD599F8010020F0040089F819
:104750000100884A391D1032A2F12A00FCF792F8B4
:1047600099F8020040070ED599F8020020F00400E5
:1047700089F80200824803998E38FCF7F1F997ED29
:10478000040A05F07DFC7B4BCDF800B0103BA3F193
:104790004C02A2F10C01A1F10C0005F079FB754867
:1047A0008C38A0F10C0190ED000A81ED000AD8EDE3
:1047B000000AC0ED000A9FED781A60EE810ADFED75
:1047C000771A00F1240240EE210A92ED000A9FEDD3
:1047D000742A40EE020AC8ED000A90ED010A81ED4C
:1047E000010AD8ED010AC0ED010A60EE810A40EE2F
:1047F000210A92ED010A40EE020AC8ED010AD0ED4D
:10480000020AC1ED020A98ED020A80ED020A20EECA
:10481000010A00EEA10AD2ED020A00EE820A88ED3A
:10482000020A00F13003183A24319FED5E0A3C3051
:10483000FBF754FF4F4B383BA3F1080529462A1DCF
:10484000A1F1100005F080FAFDF7DCFDD9F8181091
:1048500061B1411A00EE101A99ED051AF8EEC00A7E
:1048600099ED0A0A01EE200A89ED0A0AD5ED000A3F
:104870009FED4D0A60EE801ADFED4C0A3D4E81EE51
:10488000A01AD9ED0A1A343E31EE211A86ED001A2B
:1048900095ED011A21EE001AC1EE201AC6ED011A9B
:1048A00095ED021A21EE000A80EE201A86ED021A1A
:1048B000C9F818009FED3E0A3046FBF797FF95EDCB
:1048C000000A06F1AC0181ED040A95ED010A81EDC3
:1048D000050A95ED020A81ED060A96ED000A81EDC2
:1048E0000E0AD6ED010AC1ED0F0A96ED021A81ED0E
:1048F000101ADFED301AA1F1A00020EE210A80EDA0
:10490000000A20EEA10A80ED010A21EE210A80EDC5
:10491000020A98ED000A81ED0A0A98ED010A81ED7C
:104920000B0A98ED020A81ED0C0A0020A1F1C802E1
:1049300002EB800393ED000A01EB800383ED000A94
:10494000401CC0B20428F3D3002007EB800292ED94
:10495000050A01EB800282ED070A401CC0B2032861
:10496000F3D397ED040A81ED0D0A012101A806F0A9
:10497000F9FC9EE6045C00200080894500A08C457F
:1049800070010020280D002039598ABA9ECFBD3A07
:104990008EE83939000000205AF8F63F5D896EBF75
:1049A000D5A9183B6F12833A00003443DB0F49400E
:1049B0000000B44335FA8E3C2DE9F05FFA48FB4A1B
:1049C000FA4DC06CFA4EF94F0068DFF8E4C3DFF827
:1049D000DC83DFF8DC93DFF8D4A3DFF8D4B3DFF8AF
:1049E000CCE3F34C483D60361837D1140CF1180C69
:1049F000A8F1300809F178090AF1300A0BF1300BFF
:104A0000AEF1180E90423ED9E84A543A1368A042DB
:104A100001D1202235E0A84201D1202231E0B0426C
:104A200001D120222DE0B84201D1202229E06045A9
:104A300001D10A4625E0404501D10A4621E048451A
:104A400001D10A461DE0504501D10A4619E05845FA
:104A500002D14FF4001214E0704502D14FF400125D
:104A60000FE0D34A9032904202D14FF4001208E096
:104A7000CE4A4832904202D14FF4001201E04FF08A
:104A800000621340C3E0CA4AA83290423ED9C74AE6
:104A9000583A1368A04201D1202235E0A84201D142
:104AA000202231E0B04201D120222DE0B84201D1D4
:104AB000202229E0604501D10A4625E0404501D188
:104AC0000A4621E0484501D10A461DE0504501D182
:104AD0000A4619E0584502D14FF4001214E070451F
:104AE00002D14FF400120FE0B14A9032904202D14D
:104AF0004FF4001208E0AD4A4832904202D14FF420
:104B0000001201E04FF00062134080E0A84A4832F2
:104B100090423ED9A64A103A5368A04201D12022C1
:104B200035E0A84201D1202231E0B04201D120225B
:104B30002DE0B84201D1202229E0604501D10A468A
:104B400025E0404501D10A4621E0484501D10A4609
:104B50001DE0504501D10A4619E0584502D14FF4F5
:104B6000001214E0704502D14FF400120FE0904A99
:104B70009032904202D14FF4001208E08B4A483242
:104B8000904202D14FF4001201E04FF00062134056
:104B90003DE0874A103A1368A04201D1202235E057
:104BA000A84201D1202231E0B04201D120222DE0E3
:104BB000B84201D1202229E0604501D10A4625E012
:104BC000404501D10A4621E0484501D10A461DE091
:104BD000504501D10A4619E0584502D14FF4001260
:104BE00014E0704502D14FF400120FE0704A903289
:104BF000904202D14FF4001208E06C4A48329042D1
:104C000002D14FF4001201E04FF000621340002B7C
:104C100072D0664A904235D9A04201D120212DE0C0
:104C2000A84201D1202129E0B04201D1202125E074
:104C3000B84201D1202121E060451FD040451DD060
:104C400048451BD0504519D0584502D14FF40011AA
:104C500014E0704502D14FF400110FE05449903137
:104C6000884202D14FF4001108E05049483188428F
:104C700002D14FF4001101E04FF000614B484C3875
:104C80000160ADE04A4AA832904236D9A04201D133
:104C900020212DE0A84201D1202129E0B04201D1FC
:104CA000202125E0B84201D1202121E060451FD01C
:104CB00040451DD048451BD0504519D0584502D11C
:104CC0004FF4001114E0704502D14FF400110FE0D1
:104CD00037499031884202D14FF4001108E033493E
:104CE0004831884202D14FF4001101E04FF00061D9
:104CF0002E485038016073E0AEE02D4A48329042B1
:104D000035D9A04201D120212DE0A84201D1202196
:104D100029E0B04201D1202125E0B84201D1202173
:104D200021E060451FD040451DD048451BD050456F
:104D300019D0584502D14FF4001114E0704502D14A
:104D40004FF400110FE01A499031884202D14FF41C
:104D5000001108E015494831884202D14FF4001192
:104D600001E04FF0006112481038C16038E0A04205
:104D700001D1202131E0A84201D120212DE0B04213
:104D800001D1202129E0B84201D1202125E0604550
:104D900023D0404521D048451FD050451DD058450F
:104DA00008D14FF4001118E0280D0020586402408B
:104DB00010600240704502D14FF400110DE0274908
:104DC000884202D14FF4001107E02549884202D100
:104DD0004FF4001101E04FF000612048A0388160DD
:104DE000204C207880070CD5207820F0020020701D
:104DF000207840F004002070012211461A48FDF787
:104E0000F9FA6078194D80070CD5607820F002001F
:104E10006070607840F00400607001221021284624
:104E2000FDF7E8FAA07880070CD5A07820F0020002
:104E3000A070A07840F00400A07001221021284644
:104E4000FDF7D8FA05F092F82078400704D5084815
:104E5000016841F001010160BDE8F09FA0600240DF
:104E6000A0640240BC000020000402400000024098
:104E7000103C01400248D0F8520000EE100A704782
:104E8000CC1900200148B0F856007047CC1900201A
:104E9000014890F84B007047CC1900202DE9F047ED
:104EA00004460027002C12D09B4D206828602079F2
:104EB00028716078A17840EA0120A5F801002878DF
:104EC000964E4FF00109B846A52803D01BE10120FA
:104ED000BDE8F0870521204602F082FF01285FD15E
:104EE000B5F801102046093102F05AFF0128F6D129
:104EF00001276079A17940EA0120A5F8050040F278
:104F00000522A0F2052190427CD025DCB0F5827FFD
:104F10005BD00EDC032847D004DC012834D0022803
:104F2000DDD13EE0A0F58070013844D0012837D1B2
:104F300046E040F20222A0F20221904266D006DC56
:104F4000A0F58070053848D0FC2829D14CE0012913
:104F500063D0022924D167E06F4804F10D0380304B
:104F6000FC296FD006DC06291AD2DFE801F0C36CF9
:104F70007D889195FD296ED0FE296DD0FF296CD0DA
:104F8000B1F5807F0CD1ACE054F8070F45F8070F5E
:104F90006068686020892881A07AE41FA872ED1FEC
:104FA000A8E0E079A874A5E05B482022E11D133059
:104FB000FBF770FA9EE0D4F80700C5F8330099E0DB
:104FC000D4F80700C5F8370094E0B4F80700A5F856
:104FD0003B00607A85F83D008CE0B4F80700E88774
:104FE000607A85F8400085E04B480D22E11D413094
:104FF000FBF750FA95F841007071642803D286F8E7
:10500000048077E019E06420307173E04248102298
:10501000E11D4E30FBF73EFA6CE03F481022E11DE7
:105020005E30FBF737FA65E0D4F80700C5F86A0090
:10503000B4F80B00A5F86E005CE0B4F80700A5F822
:10504000700057E02FE0E07985F87200000905D084
:1050500086F801804EE02CE032E038E086F80190DE
:105060007089401C708145E0D4F8070045F8730F43
:10507000B4F80B00A880607BA871733D3AE0D4F8C7
:105080000700C5F87A00B4F80B00A5F87E0031E0FF
:10509000D4F8071001602DE0D4F807104160B4F88F
:1050A0000B10018126E0142219461D48FBF7F2F986
:1050B00020E01B481422E11DB238FBF7EBF919E0A0
:1050C00017480F2219469438FBF7E4F912E054F818
:1050D0000D1F40F8611F61684160A1680D3C81604F
:1050E00008E054F80D1F40F86D1F61684160218988
:1050F0000D3C0181B5F801000934015DA52902D1FB
:105100002044FFF7CBFE17B186F8009001E086F847
:1051100000803846DCE60000CC1900203400002076
:10512000361B002010B50F480D4901600321416076
:1051300000218160C1604FF4102202614FF400121F
:105140004261017641768176C17601774177FCF73D
:105150002FFC002803D0BDE81040FCF736B810BD86
:1051600000640040840C002010B50F480D49016018
:105170000321416000218160C1604FF4102202616F
:105180004FF400124261017641768176C176017753
:105190004177FCF70DFC002803D0BDE81040FCF778
:1051A00014B810BD00680040AC0C002008B52548BC
:1051B000016841F480010160016801F480010091FF
:1051C000016841F400110160006800F400100090D3
:1051D000002205210C20FDF7B9FC0C20FDF7A8FCEE
:1051E000002205213920FDF7B1FC3920FDF7A0FC94
:1051F000002205213A20FDF7A9FC3A20FDF798FC92
:10520000002205213B20FDF7A1FC3B20FDF790FC8F
:10521000002205214420FDF799FC4420FDF788FC7D
:10522000002205214520FDF791FC4520FDF780FC7B
:10523000002205214620FDF789FCBDE808404620F4
:10524000FDF776BC3038024010B59CB01C221649E0
:1052500015A8FBF764F9002115A805F01CF9134CFB
:1052600020601C2210491C310EA8FBF758F90021C0
:105270000EA805F010F960601C220B49383107A810
:10528000FBF74DF9002107A805F005F9A0601C22E5
:10529000054954316846FBF742F90021684605F09C
:1052A000FAF8E0601CB010BDE4C40008040000205F
:1052B0002DE9F04786B0142101A8FBF78CF90025F1
:1052C0005348016841F002010160016801F00201E8
:1052D0000091016841F040010160016801F0400166
:1052E0000091016841F001010160016801F00101D4
:1052F0000091016841F008010160016801F00801B6
:105300000091016841F004010160016801F00401AD
:105310000091016841F080010160016801F08001A5
:105320000091016841F020010160006800F0200058
:105330000090DFF8E090012240214846FDF75AF83E
:10534000DFF8D4A04FF4E056012231465046FDF775
:1053500051F8324F012210213846FDF74BF8DFF8A3
:10536000C080012211464046FDF744F840200190DC
:10537000012402940394049401A94846FCF74AFFCF
:10538000019602940395049501A95046FCF742FF4B
:10539000092001904FF488150295039401A948460D
:1053A000FCF738FF10200190029403940226049623
:1053B00001A93846FCF72EFF302001900295039496
:1053C00001A91848FCF726FF01940294039404965F
:1053D00001A94046FCF71EFF002205210620FDF72B
:1053E000B5FB0620FDF7A4FB002205210A20FDF7EE
:1053F000ADFB0A20FDF79CFB002205211720FDF7DD
:10540000A5FB1720FDF794FB06B0BDE8F087000070
:105410003038024000180240001C024000000240E8
:10542000000402400008024010B50D480B4901601D
:105430000C49416000218160C1604FF480420261EB
:1054400041618161C1610162FCF7E2FF002803D084
:10545000BDE81040FBF7B9BE10BD0000005C004085
:10546000D40C0020801A060010B510480E490160C7
:105470004FF48271416000218160C16002220261AB
:1054800001224261520282613822C261016241629C
:1054900081620A21C162FDF78BFE002803D0BDE8BE
:1054A0001040FBF792BE10BD00300140280D0020D7
:1054B00010B588B01C2101A8FBF78DF814481349DA
:1054C000016000244460846041F28731C16004615E
:1054D0008461FEF79BF808B1FBF777FE0C48FEF7F6
:1054E000D6FA08B1FBF771FE602001900294039494
:1054F0000594002201A90648FEF75DFA08B1FBF702
:1055000064FE0348FEF72CFA08B010BD00440140C9
:10551000880E002010B586B00024029403940494F1
:1055200005940094019415481349016044F29F11B9
:105530004160846042F20F71C16004618021816129
:10554000FEF764F808B1FBF740FE4FF4805002907C
:1055500002A90A48FEF7F2F808B1FBF736FE0094FC
:10556000019469460548FEF709F8002801D0FBF7C9
:105570002CFE06B010BD000000040040400E0020CC
:1055800010B50C480A4901604FF4E1314160002137
:105590008160C16001610C2242618161C161FEF7DD
:1055A000F7FB002803D0BDE81040FBF70EBE10BD8E
:1055B00000100140D00E002010B50D480B490160CD
:1055C0000C49416000218160C1604FF4806202613A
:1055D0000C2242618161C161FEF7DAFB002803D031
:1055E000BDE81040FBF7F1BD10BD000000480040D1
:1055F000180F0020A086010010B50C480A49016070
:105600004FF4E131416000218160C16001610C22F1
:1056100042618161C161FEF7BBFB002803D0BDE898
:105620001040FBF7D2BD10BD00140140600F0020F8
:1056300000B50246B0EE403AF0EE603AB0EE414AB4
:10564000F5EEC01AF1EE10FA09D1B5EEC02AF1EE6E
:1056500010FA04D1F5EEC02AF1EE10FA78D021EE5E
:10566000A10A02EE020A02EEA20A04F04DFD61EE6A
:10567000804A22EE005A62EE802A92ED012A92EDD3
:10568000030AD2ED000A92ED021A62EE001A40EE11
:10569000C11A20EE822A01EE002AB6EE001A10EEA0
:1056A000A01A00EE001A25EE010A02EEC20A62EE0E
:1056B000A10A44EEC10A24EE821A05EE611A53488B
:1056C000D0ED011AF5EEC01AF1EE10FA2CDDD0ED96
:1056D000011A90ED022A61EE802ADFED4D1A02EEEA
:1056E000A12A80ED022A90ED012A62EE202A90ED97
:1056F000032A02EEA12A80ED032A90ED012A62EE30
:10570000012A90ED042A02EEA12A80ED042AD0EDB0
:10571000021A33EE213AD0ED031A73EEA13AD0ED1E
:10572000041A34EE214A07E0DFED3A1AC0ED021AFE
:10573000C0ED031AC0ED041AD0ED001A01EE803A54
:1057400090ED000A40EE203A90ED000A00EE014A8A
:105750009FED311A23EE010A63EE810A24EE011A4D
:10576000D2ED001A92ED012AD2ED022AB1EE423AB0
:1057700063EE003A92ED033A42EEE03A43EE413AEC
:1057800073EEA14AC2ED004A61EE803A42EE813AE0
:1057900043EE603A73EE823AC2ED013A21EEA04A3E
:1057A00002EE414A03EE004A34EE224A82ED024AFA
:1057B00021EE811A02EE201A02EEC01A71EE030ADF
:1057C000C2ED030A24EEA40A03EEA30A04EE040ABF
:1057D00000EEA00A04F098FCD2ED000A60EE800A08
:1057E000C2ED000AD2ED010A60EE800AC2ED010AA4
:1057F000D2ED020A60EE800AC2ED020AD2ED030A7F
:1058000020EE800A82ED030A00BD00004C02002059
:105810006F12833A000000006F12033AFEE7FEE7C2
:10582000002814D0D0ED111AC0ED121A90ED101A04
:1058300080ED111AC0ED070A80ED080A30EEC00AAB
:1058400080ED100A017929B1012952D092E09FED33
:105850004B0A7047D0ED020A60EE801AC0ED0A1ABA
:10586000D0ED0B0A90ED032A42EE000AC0ED0B0AC0
:1058700090ED0E2A80ED0F2A90ED0D2A80ED0E2A74
:1058800030EE410A80ED0D0A90ED041A21EE001A67
:1058900080ED0C1A90ED060AF4EEC00AF1EE10FA53
:1058A00002DD80ED0B0A08E0B1EE400AF4EEC00A1A
:1058B000F1EE10FA01D280ED0B0A90ED0B0A31EEF9
:1058C000800A30EE010A80ED090AD0ED050AB4EE37
:1058D000E00AF1EE10FA02DDC0ED090A4AE0F1EE4D
:1058E000600AB4EEE00AF1EE10FA43D2C0ED090A04
:1058F00040E070EE410A90ED022A60EE820AC0EDAF
:105900000A0A90ED032A22EE002A80ED0B2AD0ED40
:105910000E2AC0ED0F2AD0ED0D2AC0ED0E2AF0EEB2
:10592000002A01EE620A30EE210A80ED0D0A90EDA8
:10593000041A21EE000A80ED0C0A70EE820A30EEA5
:10594000800AD0ED090A30EE200A80ED090AD0ED78
:10595000050AB4EEE00AF1EE10FA02DDC0ED090A24
:1059600008E0F1EE600AB4EEE00AF1EE10FA01D2BE
:10597000C0ED090A90ED090A704700000000000020
:10598000002828D0002A26D0017192ED001A80ED5F
:10599000021A92ED011A80ED031A92ED021A80EDBF
:1059A000041A80ED050AC0ED060A9FED0B0A80ED92
:1059B0000F0A80ED0E0A80ED0D0A80ED090A80EDD8
:1059C0000C0A80ED0B0A80ED0A0A80ED120A80EDC8
:1059D000110A80ED100A7047000000002DE9F74F12
:1059E00082B0F7490868026822F001020260F54AB5
:1059F0001068036823F00103036003E0016821F0ED
:105A000001010160EE4800680168C907F6D103E0B2
:105A1000016821F001010160EA4800680168C907D6
:105A2000F6D1E948E94AEA4BC06C0190E74CE84DF1
:105A3000E64EE74F0068DFF894B3DFF890C3E4491F
:105A4000483A603318341835303E78374FF40068E0
:105A50000CF1300C58454CD9884201D1202041E04E
:105A6000904201D120203DE0984201D1202039E030
:105A7000A04201D1202035E0A84201D1404631E0CA
:105A8000B04201D140462DE0B84201D1404629E064
:105A9000604501D1404625E0DFF8349309F1300933
:105AA000484502D14FF400101CE0DFF82093A9F123
:105AB0001809484502D14FF4001013E0DFF81093A5
:105AC00009F19009484502D14FF400100AE0DFF8CF
:105AD000FC9209F14809484502D14FF4001001E059
